:020000040040BA
:10000000F83C002065164000611640006116400073
:1000100061164000611640006116400000000000BB
:100020000000000000000000000000006116400019
:10003000611640000000000061164000611640009B
:1000400061164000611640006116400061164000D4
:1000500061164000611640006116400061164000C4
:10006000611640006116400000000000951340003A
:10007000B1134000CD1340006116400061164000EE
:100080000000000000000000611640006116400002
:100090006116400061164000611640006116400084
:1000A0006116400061164000611640006116400074
:1000B0006116400061164000611640006116400064
:1000C00061164000611640006116400008B5054801
:1000D000054B191A062900D808BD044A002AFBD08E
:1000E0009047F9E7A0334000A33340000000000030
:1000F00008B50748074B191A8A1002EBD27359103A
:1001000000D108BD044A002AFBD09047F9E700BFA0
:10011000A0334000A03340000000000010B5064CA2
:10012000237843B9FFF7D2FF044810B10448AFF376
:1001300000800121217010BD48080020000000004F
:10014000A033400008B5084B1BB108480849AFF37D
:1001500000800848016811B1074A02B19047BDE824
:100160000840FFF7C5BF00BF00000000A0334000FB
:100170004C080020A03340000000000010B54FF4F0
:100180006060C0F2277041F68113C0F240039847C7
:100190004FF000004FF03E0141F28942C0F24002B0
:1001A000904741F2F944C0F24004A0470028FCD037
:1001B00041F20950C0F2400080474FF48061C4F220
:1001C0000E0143F60173C2F213038B6241F219541C
:1001D000C0F24004A0470028FCD04FF0100041F2CC
:1001E000E932C0F24002904741F2C970C0F24000CB
:1001F000804710BD2DE9F8430C46904648BB002AC5
:100200002BDD8F1840F6D846C2F2000640F6D045E6
:10021000C2F200056FEA010907EB090000F00109CD
:1002200030682B68984704F10104BC4219D10DE0F5
:1002300030682B682146984704F101042146306854
:100240002A68904704F10104BC42F1D14046BDE860
:10025000F8834FF0FF30BDE8F8834FF00000BDE8B1
:10026000F883B9F1000FE3D030682A68214690473F
:1002700004F10104BC42DBD1E8E700BF2DE9F843FB
:100280000D46904600F1FF30022824D832B340F6E4
:10029000D846C2F2000640F6D447C2F200074FF03B
:1002A000000402F1FF3909F0010930683B68095D7B
:1002B0009847A0421ADA14E030683B68295D9847F5
:1002C00000280EDB04F1010430683A68295D90478C
:1002D00000281DDA05E04FF0FF3404E04FF0000481
:1002E00001E04FF0FF342046BDE8F88304F101043B
:1002F000A045F8D0B9F1000FDED030683A68295D2A
:1003000090470028EDDB04F10104A045D4D1EAE7D1
:1003100004F10104A045CFD1E5E700BF38B541F2B3
:100320005043C4F20E034FF400425A604FF00B00EA
:1003300041F22954C0F24004A0474FF00C00A047FE
:100340004FF00D00A0474FF013004FF0605141F205
:100350008504C0F24004A0474FF014004FF06051F4
:10036000A0474FF023004FF07901C2F60001A047EB
:100370004FF04C004FF05901C2F60001A0474FF476
:100380006060C4F20E004FF4C0614FF0006241F2B1
:10039000FD15C0F24005A8474FF00105C0F6000565
:1003A0004FF040002946A0474FF041002946A047A2
:1003B0004FF042002946A0474FF043002946A0478E
:1003C0004FF044002946A0474FF045002946A0477A
:1003D0004FF046002946A0474FF047002946A04766
:1003E0004FF04B002946A0474FF048002946A04750
:1003F0004FF04F002946A0474FF053002946A04731
:100400004FF04D004FF04051A04738BD70B483B05D
:10041000C0F11100102834BF06461026002E08BF78
:1004200001264FF000014FF49050C4F20E004FF43B
:1004300000554FF0180445630194019B03F1FF320E
:100440000192002BF9D105630194019B03F1FF3266
:100450000192002BF9D101F10101B142EBD34FF42C
:1004600000310191019800F1FF3301930028F9D187
:1004700003B070BC704700BF82B04FF49053C4F219
:100480000E034FF400525A634FF40030019001996B
:1004900001F1FF3301930029F9D102B0704700BF89
:1004A0004FF0C2434FF000021A704FF02200187054
:1004B000704700BFC0F307424FF00203C6F20013BB
:1004C0001A70C0F307211970C0B21870704700BFCE
:1004D0002DE9F0478146884631F0070A4FD005469E
:1004E00040F2B544C0F240040AF1FF33C3F3C00642
:1004F0000068A047D9F80400A047D9F80800A04731
:10050000D9F80C00A047D9F81000A047D9F814007A
:10051000A047D9F81800A047D9F81C00A0474FF011
:10052000080705F1200557455DD32AE02868A04754
:100530006868A047A868A047E868A0472869A0475E
:100540006869A047A869A047E869A04705F12006A7
:10055000286AA047686AA047A86AA047E86AA04737
:10056000286BA047686BA047A86BA047E86BA04723
:1005700007F1100705F140055745D7D301E04FF0CB
:100580000007B84522D907F1FF3440F2B546C0F262
:1005900040066FEA070000EB080101F0010509EBD6
:1005A000840454F8040FB04707F10107B8450FD889
:1005B000BDE8F08704F104056068B04704F1080461
:1005C0006868B04707F10207B845F3D8BDE8F0877F
:1005D000002DEFD054F8040FB04707F10107B845DC
:1005E000E8D8BDE8F087002EA0D02868A04768684A
:1005F000A047A868A047E868A0472869A04768699D
:10060000A047A869A047E869A04707F1080705F1D6
:10061000200557458AD3B4E74FF0C2434FF000029C
:100620001A7018704FEA11204FF00203C6F200133F
:100630001870C9B21970704782B04FF0000301936F
:100640000199884217D94FF0000148F29F62C0F229
:1006500001020191019B934206D8019B03F1010322
:100660000193019B9342F8D9019B03F1010301938C
:10067000019B8342EDD302B0704700BF30B40468E1
:10068000EF2C84BFEF2404601568EF2D84BFEF25A5
:1006900015600C68B4F5A07F24BF40F23F140C60D5
:1006A0001D68B5F5A07F24BF40F23F151D600468AA
:1006B0001568AC4284BF056014600A6818688242FD
:1006C00084BF08601A6030BC704700BF08B54FF0A7
:1006D000070040F2331140F21963C0F2400398471B
:1006E00008BD00BF40F66401C2F20001A1F104039D
:1006F00001F56F7103F10402586003F108035060C3
:100700008B42F7D1704700BF2DE9F0410D4690466E
:100710001F4686B24FF05000314640F21964C0F2D5
:100720004004A04706F1FF3606EB08014FF05100E8
:1007300089B2A047ADB24FF052002946A04705F15B
:10074000FF35EA194FF0530091B2A047BDE8F081A0
:1007500038B503460D464FF02000194640F21964A3
:10076000C0F24004A0474FF021002946A04738BD01
:1007700070B505464FF0C2434FF000021A701A7070
:100780004FF00200C6F200100178037843EA01221C
:1007900010B249F22531CFF6FF71884240F0108146
:1007A0004FF007004FF0330140F21964C0F24004EB
:1007B000A0474FF010004FF00001A0474FF000009D
:1007C0004FF00101A0474FF001004FF48071A047A6
:1007D0004FF002004FF4E061A0474FF004004FF0EB
:1007E0000001A0474FF0080040F20721A0474FF05A
:1007F00009004FF00001A0474FF00A004FF0000140
:10080000A0474FF00C004FF00001A0474FF00D0043
:100810004FF00001A0474FF00F004FF00001A0473C
:100820004FF010004FF00001A0474FF011004FF0C3
:100830000001A0474FF012004FF00001A0474FF019
:1008400013004FF00001A0474FF0C80040F2396696
:10085000C0F24006B0474FF0100041F29021A0478F
:100860004FF0110040F22721A0474FF03200B0476F
:100870004FF012004FF01B01A0474FF03200B0477D
:100880004FF013004FF48851A0474FF029004FF06C
:100890001901A0474FF02B004FF00D01A0474FF07A
:1008A0003200B0474FF030004FF00001A0474FF04A
:1008B00031004FF40171A0474FF032004FF4007146
:1008C000A0474FF035004FF00701A0474FF036002A
:1008D00041F20441A0474FF0370040F20571A047B4
:1008E0004FF0380040F20531A0474FF0390040F298
:1008F0000771A0474FF03C0040F20171A0474FF054
:100900003D004FF00E01A0474FF003004DF21001E3
:10091000A0474FF060004FF42741A0474FF061001F
:100920004FF00101A0474FF06A004FF00001A047CF
:100930004FF080004FF00001A0474FF081004FF0D2
:100940000001A0474FF082004FF00001A0474FF098
:1009500083004FF00001A0474FF084004FF00001EA
:10096000A0474FF085004FF00001A0474FF09000E6
:100970004FF01001A0474FF092004FF4C061A04724
:100980004FF095004FF48871A0474FF000000146EA
:100990002A686B6840F20974C0F24004A047A86856
:1009A00040F2E563C0F2400398474FF00000014673
:1009B00040F25172C0F2400290474FF0000070BD0B
:1009C0004FF0010070BD00BF08B5EF281BD8B1F58E
:1009D000A07F1BD280B289B240F25173C0F24003B3
:1009E000984740F2A140C0F24000804740F66401C1
:1009F000C2F20001086840F2B542C0F240029047DE
:100A00004FF0000008BD4FF0010008BD4FF001009D
:100A100008BD00BF2DE9F04385B00390029101921B
:100A2000009303A802A901AA6B4640F27D64C0F2BC
:100A30004004A047039A029B019901F10105009827
:100A400000F1010410461946AA1AE31A40F209748B
:100A5000C0F24004A047BDF80C00BDF8081040F2F9
:100A60005172C0F24002904740F2A143C0F24003ED
:100A7000984702990098441A019A02F10108039BD1
:100A8000C3EB080104FB011848F68900C8F688008A
:100A9000A0FB0824E4091DD040F66407C2F2000759
:100AA0004FF0F00640F2D145C0F2400504F1FF32AC
:100AB00002F0010938463146A847013C2ED109E031
:100AC00038463146A84704F1FF3438463146A84736
:100AD000013CF5D148F68903C8F68803A3FB082139
:100AE0004FEAD110C0EB001240F66400C2F20000E1
:100AF000A8EB021140F2D144C0F24004A0474FF0ED
:100B0000000001464FF0F0024FF4A07340F2097468
:100B1000C0F24004A04705B0BDE8F083B9F1000F72
:100B2000CED038463146A847013CC9D1D2E700BFF4
:100B30002DE9F04F83B082468946994201D0904218
:100B400007D15046494640F61524C0F24004A0475C
:100B500068E080460F46151A5C1A002DD4BF4FF08E
:100B6000FF3301230093002CD4BF4FF0FF3001204E
:100B70000190002DB8BF6D42002CB8BF64425046B2
:100B800040F6C912C0F240029047A54226DD4FEA66
:100B90006506002D46DDDDF800B00AEB0B094FF0CD
:100BA000010840F6C91AC0F2400AC8EB050000EA85
:100BB000080200923619B5423ADC36E03619B542E1
:100BC00002DC761B019ABF1848463946D04708F127
:100BD0000108D9443619B54247DC43E04FEA6406C0
:100BE000002C1FDDDDF804B0D9444FF0010740F6BA
:100BF000C91AC0F2400AE11B394001917619B4428A
:100C00003FDC3BE07619B44202DC361B0099884495
:100C100040464946D04707F10107D9447619B44206
:100C20004CDC48E003B0BDE8F08F761B01997F18DB
:100C300048463946D04708F10108D9444545F1DB1B
:100C4000009B002BBAD03619B54202DC761B019806
:100C50003F1848463946D04708F10108D944454570
:100C6000ACDADFE7761B01997F1848463946D04752
:100C700008F10108D9444545A0DAD3E7361B009BAB
:100C8000984440464946D04707F10107D944BC4241
:100C9000C8DB01980028B5D07619B44202DC361BB7
:100CA000009A904440464946D04707F10107D9448D
:100CB000BC42A7DAB6E7361B009B9844404649463B
:100CC000D04707F10107D944BC429BDAAAE700BF2D
:100CD0002DE9F04F83B0074688461646002A4BD0D0
:100CE0004FEA4203C3F1030001904FF0000540F6C4
:100CF000C914C0F2400405EB070A06EB080B504686
:100D00005946A047C6EB080950464946A047C5EBDF
:100D1000070A50465946A04750464946A04706EBA9
:100D2000070A05EB080B50465946A047C5EB0809D2
:100D300050464946A047C6EB070A50465946A047C9
:100D400050464946A047019A002A05DA02EB85027F
:100D500002F10602019208E0019901F10A01AB1BC0
:100D600001EB8300019006F1FF3605F10105AE426B
:100D7000C1D24FF0000001E04FF0010003B0BDE828
:100D8000F08F00BF2DE9F04F89B006908B461378A5
:100D9000002B00F0C7800092824642F6E032C0F29B
:100DA00040020592A2F26B20079040F6C9118946D5
:100DB000C0F240090A2B04D10BF1100BDDF818A08A
:100DC000A9E003EB83034FEA8308A8F52077059C8D
:100DD000E019A8F27F26A619079DA84455460BF1F5
:100DE000010201920BF1020102910BF10303039343
:100DF0000BF1040704974C4681462746344616F803
:100E0000010C10F0800F02D028465946B84714F85C
:100E1000012C02F04001CBB213B128460199B8472A
:100E200014F8010C00F02002D1B211B12846029949
:100E3000B84714F8013C03F01000C2B212B12846C2
:100E40000399B84714F8011C01F00803D8B210B197
:100E500028460499B84714F8012C02F00401CBB2DB
:100E60001BB128460BF10501B84714F8010C00F03E
:100E70000202D1B219B128460BF10601B84714F8A5
:100E8000014C14F0010F03D028460BF10701B847BD
:100E90004C4699F8013013F0800F03D028460BF12F
:100EA0000801B847607800F04002D1B219B1284675
:100EB0000BF10901B847637803F02000C2B21AB100
:100EC00028460BF10A01B847617801F01003D8B247
:100ED00018B128460BF10B01B847627802F00801FF
:100EE000CBB21BB128460BF10C01B847607800F07B
:100EF0000402D1B219B128460BF10D01B84709F12E
:100F0000020906F1020605F1010546457FF476AFB8
:100F1000B9460AF10C0A009810F8013F0090002B26
:100F20007FF448AF09B0BDE8F08F00BF4FEA011170
:100F30004250704700EB01114A60704700EB01110D
:100F40008A60704700EB0111CA6070470AB14166C0
:100F500070470166704700BF10B44264B1F1C05FD2
:100F600030D008D8B1F1006F14D0B1F1805F1ED03D
:100F700000293BD039E0B1F1205F37D003D8B1F17F
:100F8000005F32D129E0B1F1405F2FD0B1F1605F55
:100F90002BD12BE0016F046F6FEA0203214019404F
:100FA0000167416F446F21400B4043671DE0036FB1
:100FB00042EA03010167436F416F0B4023EA0203DA
:100FC000436712E0036F016F0B4023EA02030367DC
:100FD000436F42EA0301416707E0036F42EA0301FE
:100FE0000167436F42EA03014167426010BC7047EA
:100FF00041647047F8B504460D4616461F4640F654
:10100000F173C0F24003984720462946069A40F6FD
:101010004D73C0F2400398470FB1256500E0656548
:101020000EB1256300E0656325612560F8BD00BF52
:1010300070B504460D46164640F6F173C0F2400303
:1010400098472046294606F0010240F64D73C0F24B
:101050004003984716F00A0F14BF2562656216F028
:10106000020F02D0C4F8805004E016F0080F18BF39
:10107000C4F884506561256070BD00BFC06C7047C6
:10108000806C7047F0B583B00D464FEA501606F5F8
:10109000001101F207724FEA422605F0F044B4F164
:1010A000005F64D00AD8B4F1805F2CD0B4F1C05F87
:1010B00043D0B4F1006F40F09D800AE0B4F1405F8E
:1010C0007ED0B4F1605F7BD0B4F1205F40F09280BD
:1010D00067E000F01F034FF0010404FA03F7304605
:1010E0004FF000613A4640F65973C0F2400398470A
:1010F0003046394605EA040240F64D73C0F240031B
:101100009847204678E000F01F074FF0010404FAEA
:1011100007F730464FF080513A4640F65973C0F217
:10112000400398473046394605EA040240F64D73BD
:10113000C0F24003984720465EE000F01F004FF0E9
:10114000010404FA00F730464FF0C0513A4640F629
:101150005973C0F2400398473046394605EA040205
:1011600040F64D73C0F240039847204644E000F03B
:101170001F024FF0010404FA02F730464FF000510D
:101180003A4640F65973C0F2400398473046394614
:1011900005EA040240F64D73C0F24003984720462A
:1011A0002AE000F01F014FF00104304604FA01F17B
:1011B0002A4641F23103C0F24003984720461BE023
:1011C00000F01F034FF0010405F0605205EA04002F
:1011D0000090304604FA03F1B2F1605F14BF0022C0
:1011E0000122C5F3800340F6F575C0F24005A8471B
:1011F000204601E04FF0000003B0F0BDF0B583B031
:1012000007460E46154602F0F044B4F1005F50D098
:1012100009D8B4F1805F24D0B4F1C05F35D0B4F107
:10122000006F78D109E0B4F1405F5ED0B4F1605F47
:101230005BD0B4F1205F6ED14FE04FF000613246D9
:1012400040F65973C0F2400398473846314605F0DE
:10125000010240F64D73C0F2400398474FF0010081
:101260005BE04FF08051324640F65973C0F24003C4
:1012700098473846314605F0010240F64D73C0F2FA
:10128000400398474FF0010047E04FF0C05132460D
:1012900040F65973C0F2400398473846314605F08E
:1012A000010240F64D73C0F2400398474FF0010031
:1012B00033E04FF00051324640F65973C0F240031C
:1012C00098473846314605F0010240F64D73C0F2AA
:1012D000400398474FF001001FE041F23103C0F294
:1012E000400398474FF0010017E005F0605205F009
:1012F0000100009038463146B2F1605F14BF002211
:101300000122C5F3800340F6F574C0F24004A04703
:101310004FF0010001E04FF0000003B0F0BD00BF4E
:101320002DE9F04180460E4641F27D03C0F24003B4
:1013300098470546404641F28101C0F24001884786
:10134000054014D0124C274654F80C0CB0420AD178
:1013500054F8081C294206D022683046904754F8B9
:10136000083C25EA030504F11004002DEBD140F6FA
:10137000DC41C2F20001086838B140F62442C2F2F2
:10138000000213680BB140469847BDE8F08100BFEA
:10139000340C002008B54FF46060C4F20E004FF02A
:1013A0000B0141F22133C0F24003984708BD00BF52
:1013B00008B54FF48050C4F20E004FF00C0141F21A
:1013C0002133C0F24003984708BD00BF08B54FF471
:1013D0009050C4F20E004FF00D0141F22133C0F2E3
:1013E0004003984708BD00BF4FF48063C4F20E036A
:1013F0001A6B22F0700108431863986E10F0080F02
:1014000007D010E000F1FF33906E10F0080F38D0D5
:1014100009E04FF400604FF48062C4F20E02916E56
:1014200011F0080FEED04FF48061C4F20E010A6B88
:1014300022F0030343F002000863896E11F0080FE5
:1014400009D04FF00000704703F1FF33916E11F0A7
:10145000080F13D009E04FF400634FF48062C4F228
:101460000E02906E10F0080FEED04FF000007047A3
:101470004FF0010070474FF001007047013BF0D181
:10148000F9E7581ECBD1F3E788B14FF48061C4F27D
:101490000E01086A4FF6FC72CFF6C86202404FF0A8
:1014A0000203C0F2371342EA0300086270474FF4A8
:1014B0008063C4F20E031A6A22F45C1020F0030267
:1014C00042F45C1040F001024FEA016142EA11402F
:1014D00018624FF48062C4F20E02936E13F0010F93
:1014E000FBD04FF48061C4F20E01086A40F09B7299
:1014F00042F480330B6270474FF48063C4F20E03F2
:10150000986E00F4803070474FF48063C4F20E038D
:101510004FF000529A6270474FF48063C4F20E039A
:10152000986E00F002007047222835D81F2817D87F
:101530004FF48061C4F20E018A694FF0010303FA8F
:1015400000F31A4093422AD04FF0010101FA00F053
:101550004FF48062C4F20E0210614FF00000704739
:101560004FF48063C4F20E03D3F80821A0F12000E9
:101570004FF0010101FA00F10A40914212D04FF000
:10158000010303FA00F04FF48062C4F20E02C2F8C5
:1015900000014FF0000070474FF0010070474FF01E
:1015A000000070474FF00000704700BF10B44FF0CC
:1015B000AC0303600A684C68B2FBF4F34FEA131300
:1015C00003F1FF344FF6FE7294420CD8036289682F
:1015D000416040F20223C0F820314FF05002026017
:1015E0004FF0000001E04FF0010010BC704700BF59
:1015F000436913F0020F03D0C1614FF00000704740
:101600004FF00100704700BF436913F0010F04D091
:10161000806908704FF0000070474FF0010070477C
:10162000436913F0020F07D04FEAC1514FEAD1527C
:10163000C2614FF0000070474FF00100704700BFDB
:10164000436913F0010F08D080694FEAC0524FEA96
:10165000D2530B604FF0000070474FF0010070470D
:10166000FEE700BF38B5504B504A9A4229D9504D39
:101670004D4BAB4248D203F104004E4A111A21F0FF
:1016800003044FF0000340F20002C2F2000243F2F2
:10169000A031C0F2400104F10400C4F380045D589D
:1016A0009D5003F1040383426DD12DE05D589D50A0
:1016B00003F104035C589C5003F104038342F5D109
:1016C00022E03948394981421ED240F64805C2F22B
:1016D000000540F20004C2F20004374B2A1B13D06D
:1016E000A2F10400C0F380019C5845F8044D043A6F
:1016F00052D109E0995845F8041DA2F104029C5802
:1017000045F8044D043AF5D100BF2C4B2C4A9A42BF
:101710001ED2A2F104052B49481B20F0030440F619
:101720004803C2F20003E2184FF00001501BA0F181
:101730000400C0F3800445F8041F95421CD107E063
:1017400005F10403696005F1080559609542F7D178
:101750004FF46D45CEF2000540F20002C0F24002A7
:10176000AA6041F60171C0F24001884741F6394054
:10177000C0F240008047FEE7002CE1D045F8041F8E
:101780009542DDD1E4E7002C90D05C589C5003F1E9
:10179000040383428AD1B7E70029ABD0985845F8B3
:1017A000040D043AA6D1AFE700000020A0334000AA
:1017B000480800204B0800209C334000F40C002017
:1017C00048080020EF0C00204FF48063C4F20E03A1
:1017D000186B00F00303032B00F2A980DFE803F08D
:1017E00002144F4F41F21040C4F20E00416911F053
:1017F000800F40F20003C2F2000314BF4FF4004216
:101800004FF4FA421A6092E04FF48063C4F20E0380
:10181000186A10F0807F09D04FF4D853C0F2B70394
:1018200040F20002C2F20002136080E04FF4106147
:10183000C0F23D0140F20002C2F2000211604FF41A
:101840008063C4F20E03186A00F07001102902D000
:1018500020296CD109E04FF49050C0F27A0040F298
:101860000001C2F20001086061E04FF4D853C0F2F9
:10187000B70340F20002C2F20002136057E04FF4D7
:101880008062C4F20E02136A13F0807F09D04FF415
:10189000D853C0F2B70340F20002C2F20002136054
:1018A00027E04FF41063C0F23D0340F20002C2F2A1
:1018B000000213604FF48063C4F20E031A6A02F050
:1018C0007003102B02D0202B13D109E04FF490535A
:1018D000C0F27A0340F20002C2F20002136008E094
:1018E0004FF4D853C0F2B70340F20002C2F2000234
:1018F00013604FF48063C4F20E031A6B02F003030B
:10190000022B4FF48062C4F20E0207BF906A916A04
:10191000D06AD16A40F20003C2F20003C0F30A4069
:101920001A6800FB0220C9B2B0FBF1F21A604FF452
:101930008062C4F20E02106B00F0700170290ED1AB
:1019400040F20003C2F2000318684AF6AB22CAF65E
:10195000AA22A2FB00014FEA5100186070474FF421
:101960008063C4F20E031A6B40F20000C2F2000062
:10197000C2F30211036823FA01F30360704700BF4A
:1019800042F6FF43C0F2311398420CD84FF4206165
:10199000C4F20E014FF0806008604FF44063C4F25F
:1019A0000E031860704745F6FF11C0F262218842AD
:1019B0000ED84FF42060C4F20E004FF48073C0F2D2
:1019C000004303604FF44062C4F20E02136070479C
:1019D00048F2FF62C0F2933290420ED84FF4206278
:1019E000C4F20E024FF40073C0F2004313604FF4D0
:1019F0004061C4F20E010B6070474BF2FF33C0F23E
:101A0000C44398420ED84FF42062C4F20E024FF441
:101A10004071C0F2004111604FF44060C4F20E000A
:101A2000016070474EF2FF01C0F2F55188420CD8B8
:101A30004FF42061C4F20E014FF0042008604FF40F
:101A40004063C4F20E03186070474FF42060C4F284
:101A50000E004FF4A063C0F2004303604FF44062F5
:101A6000C4F20E021360704740F69843C2F20003BE
:101A7000196841B940F69843C2F2000343F6F842B0
:101A8000C2F200021A6040F69841C2F200010B68EF
:101A9000181847F6FC72C2F20202824206DB0146C7
:101AA00040F69840C2F20000016001E04FF0FF33C1
:101AB000184670474FF0FF30704700BF4FF00000EE
:101AC000704700BFF0B583B004460D464FF00003E9
:101AD00001934FF4C060C4F20E0084420DD14FF464
:101AE000C066C4F20E0641F20967C0F240073046F4
:101AF0002946B8470028FAD129E04FF40061C4F222
:101B00000E018C420DD14FF40064C4F20E0441F278
:101B10000966C0F2400620462946B0470028FAD19F
:101B20002AE04FF48042C4F2020294420FD14FF4F3
:101B30008044C4F2020441F24166C0F240062046ED
:101B400001A9B0470028FAD1019B2B7014E04FF493
:101B50000040C4F2020084420ED14FF40044C4F2AB
:101B6000020441F24166C0F24006204601A9B04796
:101B70000028FAD10199297003B0F0BD70B50C4668
:101B80004FF4C063C4F20E0398420FD14FF4C06506
:101B9000C4F20E0541F2F156C0F240062846214635
:101BA000B0470028FAD14FF0010070BD4FF400613A
:101BB000C4F20E0188420FD14FF40065C4F20E0545
:101BC00041F2F156C0F2400628462146B0470028AF
:101BD000FAD14FF0010070BD4FF48042C4F202020E
:101BE00090420FD14FF48045C4F2020541F22166C4
:101BF000C0F2400628462146B0470028FAD14FF0EF
:101C0000010070BD4FF40043C4F2020398420FD1AB
:101C10004FF40045C4F2020541F22166C0F24006CD
:101C200028462146B0470028FAD14FF0010070BD88
:101C30004FF0000070BD00BF80B584B040F27D134E
:101C4000C0F24003984740F21D30C0F24000804788
:101C50004FF0080041F22954C0F24004A0474FF46D
:101C6000C065C4F20E0540F6D841C2F200010D6015
:101C700040F6D446C2F2000641F67D32C0F2400280
:101C8000326040F6D047C2F2000741F6C523C0F2E9
:101C900040033B604FF46060C0F2277000904FF447
:101CA000E13101914FF4006602964FF00800A04721
:101CB0002846694641F2AD55C0F24005A84740F2BA
:101CC0000807C2F200073A6890684FF0000141F639
:101CD0005D76C0F24006B0473B6858684FF000019F
:101CE000B0474FF00A00A0474FF00004C4F20E04C2
:101CF00020464FF001014FF0023240F62D75C0F240
:101D00004005A84720464FF0010140F20442C0F6CA
:101D10000A2240F63577C0F24007B84720464FF018
:101D200001014FF00A02C0F2160240F63D76C0F201
:101D30004006B04720464FF001014FF0030240F645
:101D40004573C0F24003984740F6E045C2F20005F3
:101D50004FF0F0072F604FF4A0766E604FF0000454
:101D6000AC606FF07F48C5F80C8040F27940C0F25B
:101D700040008047284640F27171C0F24001884718
:101D80004FF0080040F20D42C0F24002904740463A
:101D900040F2E565C0F24005A847204621463A4694
:101DA000334640F6152CC0F2400CE04740F2CD63BC
:101DB000C0F2400398472046A8474FF00A004FF072
:101DC000140143F26032C0F2400240F68553C0F283
:101DD000400398474FF47F00A8474FF03C004FF076
:101DE000A0014FF0280240F6D148C0F24008C04799
:101DF0004FF47F40A8474FF078004FF0A0014FF01C
:101E00002802C0474FF0FF00A8474FF0B4004FF042
:101E1000A0014FF02802C04748F2EE20C0F2EE00C9
:101E2000A847204621463A46334640F63137C0F2AD
:101E30004007B847FEE700BF2DE9F8439846234B1B
:101E40001C680646D4F848010F46914618B904F5B7
:101E5000A670C4F8480141681F2916DD1C4818B94E
:101E60004FF0FF30BDE8F8834FF4C87000F0BCFBC2
:101E70000028F5D0D4F84821002545600260C4F858
:101E80004801C0F88851C0F88C51B6B14468D0F808
:101E90008811012200EB840302FA04F21143022E9E
:101EA000C3F88890C0F888111C46C3F8088104D193
:101EB000D0F88C311A43C0F88C2141688B1C4A1C25
:101EC00040F8237042600020BDE8F883743340007E
:101ED000E925400070B5084B084CE01A841003EB6C
:101EE00084060025043D1CB172599047013CF9E776
:101EF000BDE8704001F04CBA9C334000A033400074
:101F000038B50E4D0E4BE81A85100024AC4205D0B2
:101F10000B4951F8242090470134F7E701F02EFADD
:101F20000849094A541AA5100024AC4205D0054BB3
:101F300053F8240080470134F7E738BD8833400068
:101F400088334000883340009033400082180346B5
:101F5000934202D003F8011BFAE7704700290CBF37
:101F6000022200224FF4806300F000B82DE9F04116
:101F70001D46374B044618680E461746984618B15A
:101F8000826B0AB900F06CF9022F5DD8002D5BDB83
:101F90002146D8F8000000F06FF8A18901F0800315
:101FA00000201AB26060A06122B12948216900684E
:101FB00000F020FAA189022F21F08303A38112D01F
:101FC00036BB002D08BF4FF48065284600F00CFB9F
:101FD0000646C8B94FF4806000F006FB064688B993
:101FE0004FF0FF3000E00020A18941F00203A381FF
:101FF00004F1430100220123A26021602161636199
:10200000BDE8F0814FF48065A28942F08000A08194
:10201000012F05D1A1896A4241F00103A381A26188
:102020000B48A28901680B4B02F0080000B2CB6399
:1020300026602661656148B112F0030F18BF0025C4
:10204000A5600020BDE8F0814FF0FF30BDE8F081D1
:1020500008000020D5214000024B13B1024800F0D7
:1020600005B8704700000000D51E40000146002062
:1020700002460346FFF7E0BE2DE9F0410C46054657
:1020800018B1836B0BB900F0EBF8A28932B302F000
:10209000080001B2002962D1616842F400600029A1
:1020A000A08102DCE36B002B18DDA66AB6B102F456
:1020B0008052002012B22F6828600AB1226D10E011
:1020C00001232846E169B0470246013009D1296859
:1020D00039B11D2901D016294FD12F600020BDE84C
:1020E000F081A68906F004010BB22BB16068266B63
:1020F000121A0EB1E16B521AE169A66A0023284652
:10210000B047411C05D12A681AB11D2A01D0162AF0
:102110001FD1A38923F400620021A28103F480531C
:102120002269616019B2226021B1421C01D12A6882
:1021300002B92065216B2F600029CFD004F1400047
:10214000814202D0284600F055F900202063BDE806
:10215000F081A38943F04001A181BDE8F0812669A7
:10216000002EBBD09207236808BF6269266018BFA3
:102170000022C6EB0308A26012E0A38943F04000EE
:10218000A0814FF0FF30BDE8F081676AE169284621
:1021900032464346B8470028EFDD3618C0EB080842
:1021A000B8F1000FF1DC99E7014620B90448054970
:1021B000006800F0F6B9044B1868FFF75DBF00BF78
:1021C0007433400079204000080000200020704750
:1021D00000207047014900F0C3B900BF892B4000BF
:1021E000002310B504460360436083608181436629
:1021F000C2810361436183611946082200F15C00DA
:10220000FFF7A4FE04480549054A064BE461206235
:102210006162A262E36210BD312A4000572A400089
:10222000932A4000B72A400070B568254D430E46FA
:1022300005F10C0100F0E8F9044640B100F10C0092
:10224000002184E84200A0602A46FFF77FFE204676
:1022500070BD024B1868FFF7BDBF00BF743340006C
:1022600038B5836B0446EBB90F4AC0F8E03201255C
:10227000C263856304F53B7103201A46C4F8E40287
:10228000C4F8E81260680421FFF7AAFFA0680921DA
:102290002A46FFF7A5FFE06812210222BDE8384078
:1022A000FFF79EBF38BD00BFD5214000F8B51D4BDC
:1022B0001E680746B06B10B93046FFF7D1FF06F530
:1022C0003876B4687168013904D4B4F90C5085B11A
:1022D0006834F8E732680AB13668F2E73846042114
:1022E000FFF7A2FF30600028F6D10C243C600446C2
:1022F00015E04FF6FF730120A081E381656625603C
:10230000A560656025616561A56104F15C002946F1
:102310000822FFF71BFE256365636564A5642046FC
:10232000F8BD00BF74334000704770477047704776
:10233000024B0349186800F013B900BF08000020E1
:10234000CD214000024B0349186800F009B900BFD5
:1023500008000020D1214000F8B5234D0E46044668
:1023600000F054FBAB685F6827F0030707F6EF70D7
:10237000811B21F47F6222F00F06A6F58056B6F588
:10238000805F04DA204600F042FB0020F8BD002107
:10239000204600F03DFBAB68D9198842F2D171426A
:1023A000204600F035FB013010D10021204600F01E
:1023B0002FFBAB68C21A0F2AE4DD0C490968401AEA
:1023C0000B4942F0010208605A60DBE7084BA8683D
:1023D0001A68BF1B47F001074760961B20461E6026
:1023E00000F015FB0120F8BD380400204008002053
:1023F000A00C0020F8B506460D46002900F0A68086
:1024000000F004FB55F804CC514FA5F108032CF063
:1024100001029C18B96860688C4220F003000CF03F
:1024200001011CD1821839B955F8081C5B1A5218E1
:102430009868D968C1608860454842F001015960D8
:102440008360444B19688A4204D3434A304611687A
:10245000FFF782FF3046BDE8F84000F0D8BA606070
:1024600059B955F8085C5B1B52199D680837BD4285
:1024700005D0DF68EF60BD6002E0002100E00121CF
:1024800025186D6815F0010F0FD1121849B9A06811
:10249000324DA84205D1EB60AB60D8609860012155
:1024A00003E0E068A468E060846042F001005860E6
:1024B0009A500029CED1B2F5007F0CD22449D2081F
:1024C0009010012404FA00F448682043486001EBAE
:1024D000C200816835E0540A042C02D894093834CB
:1024E00016E0142C01D85B3412E0542C02D8140BE3
:1024F0006E340DE0B4F5AA7F02D8D40B773407E030
:1025000040F25455AC4202D8940C7C3400E07E2456
:102510000F4D05EBC400816881420CD1686801222F
:10252000A41002FA04F444EA00026A60084608E0D3
:102530008968814204D04C6824F00304A242F7D396
:10254000C868D86099608360CB6083E7F8BD00BF3E
:1025500038040020440800209C0C00204004002087
:102560002DE9F04104468846FFF7DEFE04F5387495
:1025700000268CB1A5686768013F0BD4B5F90C3013
:1025800033B1B5F90E00431C02D02846C0470643BC
:102590006835F1E72468ECE7FFF7C7FE3046BDE891
:1025A000F0812DE9F84380468946FFF7BDFE08F526
:1025B0003874002694B1A5686768013F0CD4B5F95A
:1025C0000C303BB1B5F90E00431C03D04046294600
:1025D000C84706436835F0E72468EBE7FFF7A5FE38
:1025E0003046BDE8F8830000024B0146186800F051
:1025F0000BB800BF08000020024B01461868FFF727
:10260000F9BE00BF080000202DE9F04701F10B04DE
:10261000162C064603D934F0070401D502E0102435
:102620008C4202D20C253560D9E1304600F0EEF93B
:10263000B4F5FC7F14D2A04DE10805EBC100C568DC
:10264000854205D105F108036D698A1C9D4244D07D
:10265000E868A9686A68C86022F00303816059E0ED
:10266000620A01D1E2081BE0042A02D8A20938322A
:1026700016E0142A01D85B3212E0542A02D8220B49
:102680006E320DE0B2F5AA7F02D8E20B773207E096
:1026900040F254539A4202D8A20C7C3200E07E22CF
:1026A000854800EBC203DD689D4215D0696821F0C2
:1026B0000301081B0F2801DD013A0DE0002809DBAA
:1026C000EB68AA68D3609A606B185A6842F0010000
:1026D000586090E1ED68E7E7013277490D6901F153
:1026E0000807BD4268D0686820F00303181B0F2854
:1026F0000CDD2B194B610B6144F0010440F001012A
:102700006C60DF609F605960185074E100284F6171
:102710000F6101DBEB18D8E7B3F5007F0FD2DB08C0
:102720009810012707FA00F7486807434F6001EB4C
:10273000C301E9608B68AB60DD608D603CE0580AE6
:10274000042802D89809383016E0142801D85B30E4
:1027500012E0542802D8180B6E300DE0B0F5AA7FB5
:1027600002D8D80B773007E040F25457B84202D86D
:10277000980C7C3000E07E20DFF83CE10EEBC007D7
:10278000B968B9420ED18710012303FA07F0DEF8C9
:10279000047040EA0703CEF80430084608E0896870
:1027A000B94204D0486820F003008342F7D3C868D8
:1027B000E860A960CD6085603F4F95100120796881
:1027C00000FA05F38B425DD80B4205D122F00302DB
:1027D0005B0004320B42FBD0374D05EBC20E77464F
:1027E0001046FD68BD422DD0696821F0030CC4EB92
:1027F0000C010F2913DD2B1944F00104EA686C6009
:1028000055F8080F5950C26090602B4A41F0010002
:10281000536113610832DA609A6058600CE0002955
:102820000EDB05EB0C00E968426842F001034360EF
:1028300055F8080FC1608860304600F0E8F8DEE027
:10284000ED68CFE70130810705F10807C9D171466E
:10285000950705D1184A556825EA0305556005E036
:10286000A1F108070968013AB942F1D0124F7F6817
:102870005B00BB4206D82BB102463B42ACD10432CE
:102880005B00FAE70C4B9F68786820F00309A145CC
:10289000194604D3C4EB09000F2800F3A280074AAD
:1028A000D1F808341568013307EB090A04EB050871
:1028B00006D108F110080BE0380400209C0C002021
:1028C00008F5805000F10F0121F47F6222F00F081B
:1028D0003046414600F09CF8421C054671D05045F8
:1028E00002D2484B9F426CD14748464A4168554501
:1028F00008EB0103436007D1290505D19568C84459
:1029000048F00100686051E0D2F80804421C03D18D
:102910003C4AC2F8085405E0CAEB050A03EB0A0179
:10292000394B596015F007001CBFC0F108002D1885
:1029300005EB080C00F580514FEA0C5EA1EB1E5828
:102940004146304600F064F82F4A431C536808BFE4
:102950004FF0000808EB030108BF28465160401BF8
:10296000284A00EB080343F0010197429560696033
:102970001CD0B9F10F0F02D801226A6021E07D68F6
:10298000A9F10C0929F0070907EB090305F0010279
:10299000052149EA0200B9F10F0F7860596099608A
:1029A00004D9304607F10801FFF724FD164A5368A1
:1029B000D16A156B8B4288BFD362AB4284BF124D84
:1029C0002B6310488268536823F00301A142C4EBD3
:1029D000010001D30F2804DC304600F018F8002570
:1029E0000DE0084A956844F001032C1940F00101FC
:1029F0006B6094606160304600F009F80835284645
:102A0000BDE8F087380400209C0C00207047704718
:102A100038B5064C0023054608462360FFF724F826
:102A2000431C02D1216801B1296038BDF00C00209F
:102A300010B50C46B1F90E1000F0C0F8002803DB09
:102A4000226D1318236510BDA38923F48051A18141
:102A500010BD002070472DE9F0411D468B890C46C2
:102A600003F4807116460AB207462AB1B4F90E1073
:102A70000022022300F090F8A089B4F90E1020F48F
:102A80008053A381384632462B46BDE8F04100F022
:102A900017B810B50C46B1F90E1000F07DF8431CC4
:102AA000A38903D123F48052A28110BD43F4805145
:102AB000A181206510BDB1F90E1000F013B800001F
:102AC00038B5074C054600202060084611461A46D6
:102AD000FDF7D4FB431C02D1236803B12B6038BD42
:102AE000F00C002038B5064C00230546084623604C
:102AF000FEF7E0FF431C02D1216801B1296038BD17
:102B0000F00C002070B505460C46002939D0FFF7BF
:102B10000BFC25B1AB6B13B92846FFF7A1FBB4F949
:102B20000C605EB328462146FFF7A6FAE26A064625
:102B30003AB12846E169904736EA200628BF4FF0AF
:102B4000FF36A08900F080010BB21BB12846216935
:102B5000FFF750FC216B41B104F14002914202D0D9
:102B60002846FFF747FC00202063616C21B128460E
:102B7000FFF740FC002161640023A381FFF7D5FB30
:102B800000E00E46304670BD024B01461868FFF764
:102B9000B9BF00BF0800002038B5074C054600202B
:102BA0002060084611461A46FEF788FF431C02D1F2
:102BB000236803B12B6038BDF00C002038B5074CFA
:102BC000054600202060084611461A46FDF712FB14
:102BD000431C02D1236803B12B6038BDF00C0020E8
:102BE00000000000000000000000000000000000E5
:102BF000000000000000000000000000FFCCFFCC3F
:102C0000000000000000000000000000F000F000E4
:102C100000000000F000F000000000000CC00CC03C
:102C2000FFFCFFFC0CC00CC0FFFCFFFC0CC00CC088
:102C30000C601E703F303330FFFCFFFC333033F04C
:102C400039E018C06000F00CF03C60F003C00F00E9
:102C50003C18F03CC03C00183CF07FF8C31CC78C0B
:102C6000CFCCDCEC7878303000FC00CC00000000E9
:102C700000004400EC00F8007000000000000000BC
:102C8000000000000FC03FF078786018C00CC00C46
:102C90000000000000000000C00CC00C6018787834
:102CA0003FF00FC0000000000C600EE007C0038082
:102CB0003FF83FF8038007C00EE00C6003000300FC
:102CC000030003003FF03FF0030003000300030094
:102CD000004400EC00F8007000000000000000005C
:102CE00000000000030003000300030003000300D2
:102CF00003000300030003000018003C003C001820
:102D00000000000000000000000000000000000CB7
:102D1000003C00F003C00F003C00F000C0000000C9
:102D20003FF07FF8E0FCC1CCC38CC70CCE0CFC1C80
:102D30007FF83FF000000000300C700CFFFCFFFC3F
:102D4000000C000C00000000300C701CE03CC07C4B
:102D5000C0ECC1CCC38CE70C7E0C3C0C303070381E
:102D6000E01CC00CC00CC30CC30CE31C7FF83CF08F
:102D700003C007C00EC01CC038C070C0FFFCFFFC01
:102D800000C000C0FC30FC38CC1CCC0CCC0CCC0CF3
:102D9000CC0CCE1CC7F8C3F03FF07FF8E31CC30C8B
:102DA000C30CC30CC30CE39C71F830F0C000C0002E
:102DB000C000C000C3FCC7FCCE00DC00F800F0007F
:102DC0003CF07FF8E79CC30CC30CC30CC30CE79C1E
:102DD0007FF83CF03C007E00E70CC30CC31CC338FA
:102DE000C370E7E07FC03F80000000000000186073
:102DF0003CF03CF018600000000000000000000003
:102E0000000018443CEC3CF8187000000000000082
:102E10000000030007800FC01CE038707038E01C11
:102E2000C00C00000CC00CC00CC00CC00CC00CC00E
:102E30000CC00CC00CC00CC00000C00CE01C7038F2
:102E400038701CE00FC007800300000030007000E5
:102E5000E000C000C1ECC3ECC300E6007E003C0013
:102E600030F071F8E39CC30CC3FCC3FCC00CE01C45
:102E70007FF83FF03FFC7FFCE0C0C0C0C0C0C0C0D6
:102E8000C0C0E0C07FFC3FFCFFFCFFFCC30CC30CD8
:102E9000C30CC30CC30CE79C7FF83CF03FF07FF8F9
:102EA000E01CC00CC00CC00CC00CE01C70383030F2
:102EB000FFFCFFFCC00CC00CC00CC00CC00CE01C24
:102EC0007FF83FF0FFFCFFFCC30CC30CC30CC30C2A
:102ED000C30CC30CC00CC00CFFFCFFFCC300C30040
:102EE000C300C300C300C300C000C0003FF07FF8B0
:102EF000E01CC00CC00CC30CC30CE31C73F833F013
:102F0000FFFCFFFC030003000300030003000300B9
:102F1000FFFCFFFC00000000C00CC00CFFFCFFFC2D
:102F2000C00CC00C0000000000300038C01CC00CF9
:102F3000C00CC01CFFF8FFF0C000C000FFFCFFFC8D
:102F4000078007800FC01CE038707038E01CC00C90
:102F5000FFFCFFFC000C000C000C000C000C000C33
:102F6000000C000CFFFCFFFC700038001F001F006D
:102F700038007000FFFCFFFCFFFCFFFC1C000E0093
:102F80000700038001C000E0FFFCFFFC3FF07FF87A
:102F9000E01CC00CC00CC00CC00CE01C7FF83FF063
:102FA000FFFCFFFCC300C300C300C300C300E70075
:102FB0007E003C003FF07FF8E01CC00CC0CCC0ECB1
:102FC000C07CE0387FFC3FECFFFCFFFCC300C3800B
:102FD000C380C3C0C3C0E7707E3C3C1C3C187E1C51
:102FE000E70CC30CC30CC30CC30CC39CE1F860F02A
:102FF000C000C000C000C000FFFCFFFCC000C0005B
:10300000C000C000FFF0FFF8001C000C000C000C1A
:10301000000C001CFFF8FFF0FFC0FFE0007000385C
:10302000001C001C00380070FFE0FFC0FFF0FFF83C
:10303000001C003C00F800F8003C001CFFF8FFF00A
:10304000F03CF87C1CE00FC0078007800FC01CE03C
:10305000F87CF03CFC00FE000700038001FC01FC52
:1030600003800700FE00FC00C03CC07CC0ECC1CC6B
:10307000C38CC70CCE0CDC0CF80CF00C000000006C
:10308000FFFCFFFCC00CC00CC00C000000000000E6
:10309000300030000C000C000300030000C000C032
:1030A0000030003000000000C00CC00CC00CFFFC61
:1030B000FFFC0000000000000C001C003800700045
:1030C000E000E000700038001C000C00000C000C58
:1030D000000C000C000C000C000C000C000C000C90
:1030E00000000000C000E000700038001800000080
:1030F00000000000003006780EFC0CCC0CCC0CCC90
:103100000CCC0ECC07FC03F8FFFCFFFC030C030CFB
:10311000030C030C030C039C01F800F003F007F808
:103120000E1C0C0C0C0C0C0C0C0C0E1C0738033079
:1031300000F001F8039C030C030C030C030C030CBC
:10314000FFFCFFFC03F007F80EDC0CCC0CCC0CCC25
:103150000CCC0EDC07D80390000003003FFC7FFC82
:10316000E300E30070003000000000000318079C3B
:103170000FCC0CCC0CCC0CCC0CCC0CDC0FF807F02E
:10318000FFFCFFFC0300030003000300038001FCBD
:1031900000FC000000000000000000001BFC1BFC05
:1031A0000000000000000000000000300038001C9B
:1031B000000C000C001CCFF8CFF000000000FFFC5A
:1031C000FFFC00E001E003F007380E1C0C0C0000CF
:1031D00000000000C00CC00CFFFCFFFC000C000C49
:1031E000000000000FFC0FFC0E00070003C003C02E
:1031F00007000E000FFC0FFC0FFC0FFC0300070084
:103200000E000C000C000E0007FC03FC03F007F896
:103210000E1C0C0C0C0C0C0C0C0C0E1C07F803F008
:103220000FFC0FFC0CC00CC00CC00CC00CC00FC0BD
:1032300007800300030007800FC00CC00CC00CC047
:103240000CC00CC00FFC0FFC0FFC0FFC0380070030
:103250000E000C000C000E00070003000318079C72
:103260000FCC0CCC0CCC0CCC0CCC0CFC0E7806305F
:1032700000000C000C00FFF0FFF80C1C0C1C0C38BC
:103280000C3000000FF00FF8001C000C000C000CBC
:10329000000C001C0FF80FF00FC00FE0007000389A
:1032A000001C001C003800700FE00FC00FF00FF87A
:1032B000001C001C00F800F8001C001C0FF80FF0A8
:1032C0000C0C0E1C073803F001E001E003F0073896
:1032D0000E1C0C0C0C000E00070C039C01F801F0F6
:1032E000038007000E000C000C0C0C1C0C3C0C7C2A
:1032F0000CEC0DCC0F8C0F0C0E0C0C0C0000030012
:1033000007803FF07CF8E01CC00CC00CC00C000033
:10331000030C030C3FFC7FFCE30CC30CC00CE00C63
:10332000700C300C0000C00CC00CC00CE01C7CF811
:103330003FF0078003000000C000C000C000C000D4
:10334000C000C000C000C000C000C000FFFCFFFC07
:10335000FFFCFFFCFFFCFFFCFFFCFFFCFFFCFFFC95
:10336000696C69393332355F6C6364206578616DEF
:10337000706C65001000002043000000F8B500BF2D
:10338000F8BC08BC9E4670475920400045014000EB
:10339000F8B500BFF8BC08BC9E4670471D01400050
:1033A00000093D00000000001000002000000000A7
:1033B00000000000FC02002064030020CC03002079
:1033C00000000000000000000000000000000000FD
:1033D00000000000000000000000000000000000ED
:1033E00000000000783340000000000000000000F2
:1033F00000000000000000000000000000000000CD
:1034000000000000000000000000000000000000BC
:1034100000000000000000000000000000000000AC
:10342000000000000000000000000000000000009C
:10343000000000000000000000000000000000008C
:10344000000000000000000000000000000000007C
:10345000000000000000000001000000000000006B
:103460000E33CDAB34126DE6ECDE05000B00000030
:10347000000000000000000000000000000000004C
:10348000000000000000000000000000000000003C
:10349000000000000000000000000000000000002C
:1034A000000000000000000000000000000000001C
:1037E0003804002038040020400400204004002059
:1037F0004804002048040020500400205004002009
:1038000058040020580400206004002060040020B8
:103810006804002068040020700400207004002068
:103820007804002078040020800400208004002018
:1038300088040020880400209004002090040020C8
:103840009804002098040020A0040020A004002078
:10385000A8040020A8040020B0040020B004002028
:10386000B8040020B8040020C0040020C0040020D8
:10387000C8040020C8040020D0040020D004002088
:10388000D8040020D8040020E0040020E004002038
:10389000E8040020E8040020F0040020F0040020E8
:1038A000F8040020F8040020000500200005002096
:1038B0000805002008050020100500201005002044
:1038C00018050020180500202005002020050020F4
:1038D00028050020280500203005002030050020A4
:1038E0003805002038050020400500204005002054
:1038F0004805002048050020500500205005002004
:1039000058050020580500206005002060050020B3
:103910006805002068050020700500207005002063
:103920007805002078050020800500208005002013
:1039300088050020880500209005002090050020C3
:103940009805002098050020A0050020A005002073
:10395000A8050020A8050020B0050020B005002023
:10396000B8050020B8050020C0050020C0050020D3
:10397000C8050020C8050020D0050020D005002083
:10398000D8050020D8050020E0050020E005002033
:10399000E8050020E8050020F0050020F0050020E3
:1039A000F8050020F8050020000600200006002091
:1039B000080600200806002010060020100600203F
:1039C00018060020180600202006002020060020EF
:1039D000280600202806002030060020300600209F
:1039E000380600203806002040060020400600204F
:1039F00048060020480600205006002050060020FF
:103A000058060020580600206006002060060020AE
:103A1000680600206806002070060020700600205E
:103A2000780600207806002080060020800600200E
:103A300088060020880600209006002090060020BE
:103A40009806002098060020A0060020A00600206E
:103A5000A8060020A8060020B0060020B00600201E
:103A6000B8060020B8060020C0060020C0060020CE
:103A7000C8060020C8060020D0060020D00600207E
:103A8000D8060020D8060020E0060020E00600202E
:103A9000E8060020E8060020F0060020F0060020DE
:103AA000F8060020F806002000070020000700208C
:103AB000080700200807002010070020100700203A
:103AC00018070020180700202007002020070020EA
:103AD000280700202807002030070020300700209A
:103AE000380700203807002040070020400700204A
:103AF00048070020480700205007002050070020FA
:103B000058070020580700206007002060070020A9
:103B10006807002068070020700700207007002059
:103B20007807002078070020800700208007002009
:103B300088070020880700209007002090070020B9
:103B40009807002098070020A0070020A007002069
:103B5000A8070020A8070020B0070020B007002019
:103B6000B8070020B8070020C0070020C0070020C9
:103B7000C8070020C8070020D0070020D007002079
:103B8000D8070020D8070020E0070020E007002029
:103B9000E8070020E8070020F0070020F0070020D9
:103BA000F8070020F8070020000800200008002087
:103BB0000808002008080020100800201008002035
:103BC00018080020180800202008002020080020E5
:103BD0002808002028080020300800203008002095
:083BE000FFFFFFFF00000200DF
:04000005004016653C
:00000001FF
