S01C000050574D5F50574D5F4C45445F4558414D504C45312E73726563F1
S21440000058390020AD0D4000A90D4000A90D400014
S214400010A90D4000A90D4000A90D400000000000B9
S214400020000000000000000000000000A90D400095
S214400030A90D400000000000A90D4000A90D400099
S214400040A90D4000A90D4000A90D4000A90D400093
S214400050A90D4000A90D4000A90D4000A90D400083
S214400060A90D4000A90D400000000000F90740001F
S2144000701508400031084000A90D4000A90D400079
S2144000800000000000000000A90D4000A90D40003F
S214400090A90D4000A90D4000A90D4000A90D400043
S2144000A0A90D4000A90D4000A90D4000A90D400033
S2144000B0A90D4000A90D4000A90D40009513400031
S2144000C0A90D4000A90D4000A90D400008B50548FF
S2144000D0054B191A062900D808BD044A002AFBD049
S2144000E09047F9E7942C4000972C40000000000011
S2144000F008B50748074B191A8A1002EBD2735910F5
S21440010000D108BD044A002AFBD09047F9E700BF5B
S214400110942C4000942C40000000000010B5064C83
S214400120237843B9FFF7D2FF044810B10448AFF331
S21440013000800121217010BD48080020000000000A
S214400140942C400008B5084B1BB108480849AFF34B
S21440015000800848016811B1074A02B19047BDE8DF
S2144001600840FFF7C5BF00BF00000000942C4000C9
S2144001704C080020942C40000000000010B54FF4BE
S2144001806060C0F2277041F2C903C0F2400398474E
S2144001904FF000004FF03E0140F6ED02C0F2400244
S2144001A0904740F65D14C0F24004A0470028FCD0BB
S2144001B040F66D10C0F2400080474FF48061C4F2B4
S2144001C00E0143F60173C2F213038B6240F67D14B0
S2144001D0C0F24004A0470028FCD04FF0100040F684
S2144001E04D02C0F24002904740F61170C0F2400007
S2144001F0804710BD2DE9F8430C46904648BB002A80
S2144002002BDD8F1840F62016C2F2000640F6181571
S214400210C2F200056FEA010907EB090000F0010988
S21440022030682B68984704F10104BC4219D10DE0B0
S21440023030682B682146984704F10104214630680F
S2144002402A68904704F10104BC42F1D14046BDE81B
S214400250F8834FF0FF30BDE8F8834FF00000BDE86C
S214400260F883B9F1000FE3D030682A6821469047FA
S21440027004F10104BC42DBD1E8E700BF2DE9F843B6
S2144002800D46904600F1FF30022824D832B340F69F
S2144002902016C2F2000640F61C17C2F200074FF0C6
S2144002A0000402F1FF3909F0010930683B68095D36
S2144002B09847A0421ADA14E030683B68295D9847B0
S2144002C000280EDB04F1010430683A68295D904747
S2144002D000281DDA05E04FF0FF3404E04FF000043C
S2144002E001E04FF0FF342046BDE8F88304F10104F6
S2144002F0A045F8D0B9F1000FDED030683A68295DE5
S21440030090470028EDDB04F10104A045D4D1EAE78C
S21440031004F10104A045CFD1E5E700BF10B541F296
S2144003205043C4F20E034FF400425A604FF00B00A5
S21440033040F68D14C0F24004A0474FF00C00A04792
S2144003404FF00D00A0474FF013004FF0605140F2C1
S214400350E944C0F24004A0474FF014004FF060510B
S214400360A0474FF023004FF07901C2F60001A047A6
S2144003704FF04C004FF05901C2F60001A0474FF431
S2144003806060C4F20E004FF4C0614FF0006240F26D
S2144003906163C0F2400398474FF013004FF080511E
S2144003A0A0474FF014004FF08051A04710BD00BF4B
S2144003B00AB1416670470166704700BF10B4426498
S2144003C0B1F1C05F30D008D8B1F1006F14D0B1F1B0
S2144003D0805F1ED000293BD039E0B1F1205F37D096
S2144003E003D8B1F1005F32D129E0B1F1405F2FD0A0
S2144003F0B1F1605F2BD12BE0016F046F6FEA02030F
S214400400214019400167416F446F21400B404367CC
S2144004101DE0036F42EA03010167436F416F0B40E3
S21440042023EA0203436712E0036F016F0B4023EA9F
S21440043002030367436F42EA0301416707E0036F25
S21440044042EA03010167436F42EA030141674260A3
S21440045010BC704741647047F8B504460D461646D2
S2144004601F4640F25543C0F240039847204629466F
S214400470069A40F2B133C0F2400398470FB1256563
S21440048000E065650EB1256300E065632561256083
S214400490F8BD00BF70B504460D46164640F25543BB
S2144004A0C0F2400398472046294606F0010240F233
S2144004B0B133C0F24003984716F00A0F14BF2562C6
S2144004C0656216F0020F02D0C4F8805004E016F0C1
S2144004D0080F18BFC4F884506561256070BD00BF22
S2144004E0C06C7047806C7047F0B583B00D464FEADD
S2144004F0501606F5001101F207724FEA422605F043
S214400500F044B4F1005F64D00AD8B4F1805F2CD0D8
S214400510B4F1C05F43D0B4F1006F40F09D800AE074
S214400520B4F1405F7ED0B4F1605F7BD0B4F1205F21
S21440053040F0928067E000F01F034FF0010404FA99
S21440054003F730464FF000613A4640F2BD33C0F202
S214400550400398473046394605EA040240F2B13334
S214400560C0F240039847204678E000F01F074FF05F
S214400570010404FA07F730464FF080513A4640F2FD
S214400580BD33C0F2400398473046394605EA040278
S21440059040F2B133C0F24003984720465EE000F098
S2144005A01F004FF0010404FA00F730464FF0C051E8
S2144005B03A4640F2BD33C0F240039847304639468B
S2144005C005EA040240F2B133C0F2400398472046A1
S2144005D044E000F01F024FF0010404FA02F73046F0
S2144005E04FF000513A4640F2BD33C0F240039847C0
S2144005F03046394605EA040240F2B133C0F24003C1
S214400600984720462AE000F01F014FF0010430468C
S21440061004FA01F12A4640F29543C0F24003984757
S21440062020461BE000F01F034FF0010405F0605227
S21440063005EA04000090304604FA03F1B2F1605F28
S21440064014BF00220122C5F3800340F25945C0F290
S2144006504005A847204601E04FF0000003B0F0BD3B
S214400660F0B583B007460E46154602F0F044B4F1A6
S214400670005F50D009D8B4F1805F24D0B4F1C05F99
S21440068035D0B4F1006F78D109E0B4F1405F5ED068
S214400690B4F1605F5BD0B4F1205F6ED14FE04FF0B5
S2144006A00061324640F2BD33C0F2400398473846B8
S2144006B0314605F0010240F2B133C0F2400398479C
S2144006C04FF001005BE04FF08051324640F2BD33C0
S2144006D0C0F2400398473846314605F0010240F2E2
S2144006E0B133C0F2400398474FF0010047E04FF067
S2144006F0C051324640F2BD33C0F2400398473846B8
S214400700314605F0010240F2B133C0F2400398474B
S2144007104FF0010033E04FF00051324640F2BD3317
S214400720C0F2400398473846314605F0010240F291
S214400730B133C0F2400398474FF001001FE040F24B
S2144007409543C0F2400398474FF0010017E005F08C
S214400750605205F00100009038463146B2F1605FC5
S21440076014BF00220122C5F3800340F25944C0F270
S2144007704004A0474FF0010001E04FF0000003B0F6
S214400780F0BD00BF2DE9F04180460E4640F2E14301
S214400790C0F2400398470546404640F2E541C0F265
S2144007A040018847054014D0124C274654F80C0C9C
S2144007B0B0420AD154F8081C294206D02268304676
S2144007C0904754F8083C25EA030504F11004002D30
S2144007D0EBD140F62411C2F20001086838B140F669
S2144007E06402C2F2000213680BB140469847BDE867
S2144007F0F08100BF7408002008B54FF46060C4F272
S2144008000E004FF00B0140F28573C0F2400398474C
S21440081008BD00BF08B54FF48050C4F20E004FF03C
S2144008200C0140F28573C0F24003984708BD00BFF4
S21440083008B54FF49050C4F20E004FF00D0140F250
S2144008408573C0F24003984708BD00BF4FF48063ED
S214400850C4F20E031A6B22F0700108431863986EB8
S21440086010F0080F07D010E000F1FF33906E10F044
S214400870080F38D009E04FF400604FF48062C4F2AD
S2144008800E02916E11F0080FEED04FF48061C4F264
S2144008900E010A6B22F0030343F002000863896EE0
S2144008A011F0080F09D04FF00000704703F1FF33F6
S2144008B0916E11F0080F13D009E04FF400634FF427
S2144008C08062C4F20E02906E10F0080FEED04FF029
S2144008D0000070474FF0010070474FF0010070472E
S2144008E0013BF0D1F9E7581ECBD1F3E788B14FF47E
S2144008F08061C4F20E01086A4FF6FC72CFF6C862F9
S21440090002404FF00203C0F2371342EA0300086287
S21440091070474FF48063C4F20E031A6A22F45C10E8
S21440092020F0030242F45C1040F001024FEA0161FD
S21440093042EA114018624FF48062C4F20E02936E8F
S21440094013F0010FFBD04FF48061C4F20E01086A29
S21440095040F09B7242F480330B6270474FF48063E2
S214400960C4F20E03986E00F4803070474FF48063F4
S214400970C4F20E034FF000529A6270474FF4806301
S214400980C4F20E03986E00F002007047222835D855
S2144009901F2817D84FF48061C4F20E018A694FF0C1
S2144009A0010303FA00F31A4093422AD04FF00101A4
S2144009B001FA00F04FF48062C4F20E0210614FF06C
S2144009C0000070474FF48063C4F20E03D3F808214A
S2144009D0A0F120004FF0010101FA00F10A409142D7
S2144009E012D04FF0010303FA00F04FF48062C4F2D5
S2144009F00E02C2F800014FF0000070474FF00100B1
S214400A0070474FF0000070474FF00000704700BF3F
S214400A10F0B48CB006460F4601AC42F6EC35C0F258
S214400A2040050FCD0FC40FCD0FC495E8070084E8EE
S214400A300700019BB7FBF3F0B0FBF6F1B1F5807F02
S214400A4052D90299B7FBF1F2B2FBF6F1B1F5807FCD
S214400A504DD9039BB7FBF3F0B0FBF6F1B1F5807FC1
S214400A6048D90499B7FBF1F2B2FBF6F1B1F5807FB5
S214400A7043D9059BB7FBF3F0B0FBF6F1B1F5807FA9
S214400A803ED90699B7FBF1F2B2FBF6F1B1F5807F9D
S214400A9039D9079BB7FBF3F0B0FBF6F1B1F5807F91
S214400AA034D90899B7FBF1F2B2FBF6F1B1F5807F85
S214400AB02FD9099BB7FBF3F0B0FBF6F1B1F5807F79
S214400AC02AD90A99B7FBF1F2B2FBF6F1B1F5807F6D
S214400AD025D90B9BB7FBF3F0B0FBF6F1B1F5807F61
S214400AE020D94FF6FF7021E04FF000021CE04FF097
S214400AF0010219E04FF0020216E04FF0030213E045
S214400B004FF0040210E04FF005020DE04FF00602F1
S214400B100AE04FF0070207E04FF0080204E04FF00B
S214400B20090201E04FF00A0241EA02200CB0F0BC94
S214400B30704700BF70B506460C46086858B18968CD
S214400B4040F61123C0F2400398474FF6FF718842A3
S214400B5014D0054601E04FF00005606858B1A16822
S214400B6040F61122C0F2400290474FF6FF7398427B
S214400B7004D045EA004535604FF0000070BD00BF28
S214400B8030B40B688D8A4A6802F00F0425430A8900
S214400B9015438C7A45EA44258A7D45EA0244CD7D54
S214400BA044EA45440A7E44EA824503F110044FEA8B
S214400BB0441284188550CA6862600A6900EB431480
S214400BC0C4F80C228A7D3AB18C8B4A8B42EA0444A4
S214400BD000EB4312C2F81842CC7F04FA03F48A7F33
S214400BE002FA03F242EA0444846491F8214004FA8B
S214400BF003F491F8202002FA03F242EA04444464E3
S214400C004FF0010202FA03F291F822401CB1046A46
S214400C101443046203E0046A24EA0204046291F87E
S214400C202440012C03D1846E1443846606E0846E0F
S214400C30002A14BF002404F00104846691F825407D
S214400C40012C04D1846E44EA0242826606E0846E39
S214400C50120414BF002204F001028266C46E4FEAFA
S214400C60C3034FF0FF0202FA03F224EA020291F8AD
S214400C70231001FA03F31A43C2664FF0000030BC5B
S214400C80704700BF10B40C680B69934207D3CA6024
S214400C9000EB4410C0F808224FF0000001E04FF689
S214400CA0FF7010BC704700BF4FF0010303FA01F11C
S214400CB0416070474FF0010303FA01F181607047CD
S214400CC0C069704702F110024FF0010303FA02F2C6
S214400CD003FA01F10A430261704700BF02F11002B5
S214400CE04FF0010303FA02F203FA01F10A434261AC
S214400CF0704700BF10B44FF0AC0303600A684C68FE
S214400D00B2FBF4F34FEA131303F1FF344FF6FE72CF
S214400D1094420CD803628968416040F20223C0F8CE
S214400D2020314FF0500202604FF0000001E04FF0DB
S214400D30010010BC704700BF436913F0020F03D098
S214400D40C1614FF0000070474FF00100704700BF90
S214400D50436913F0010F04D0806908704FF000001B
S214400D6070474FF001007047436913F0020F07D0F9
S214400D704FEAC1514FEAD152C2614FF0000070476E
S214400D804FF00100704700BF436913F0010F08D0D1
S214400D9080694FEAC0524FEAD2530B604FF00000D2
S214400DA070474FF001007047FEE700BF38B5504B24
S214400DB0504A9A4229D9504D4D4BAB4248D203F146
S214400DC004004E4A111A21F003044FF0000340F28B
S214400DD00002C2F2000242F69441C0F2400104F121
S214400DE00400C4F380045D589D5003F1040383421D
S214400DF06DD12DE05D589D5003F104035C589C5026
S214400E0003F104038342F5D122E03948394981424F
S214400E101ED240F64805C2F2000540F20004C2F277
S214400E200004374B2A1B13D0A2F10400C0F3800104
S214400E309C5845F8044D043A52D109E0995845F873
S214400E40041DA2F104029C5845F8044D043AF5D11D
S214400E5000BF2C4B2C4A9A421ED2A2F104052B49C5
S214400E60481B20F0030440F64803C2F20003E21891
S214400E704FF00001501BA0F10400C0F3800445F879
S214400E80041F95421CD107E005F10403696005F193
S214400E90080559609542F7D14FF46D45CEF20005EE
S214400EA040F20002C0F24002AA6041F2C161C0F2C4
S214400EB04001884741F25940C0F240008047FEE773
S214400EC0002CE1D045F8041F9542DDD1E4E7002C24
S214400ED090D05C589C5003F1040383428AD1B7E714
S214400EE00029ABD0985845F8040D043AA6D1AFE790
S214400EF000000020942C4000480800204B080020AA
S214400F00902C400054090020480800204F0900203B
S214400F104FF48063C4F20E03186B00F00303032BF8
S214400F2000F2A980DFE803F002144F4F41F2104070
S214400F30C4F20E00416911F0800F40F20003C2F285
S214400F40000314BF4FF400424FF4FA421A6092E096
S214400F504FF48063C4F20E03186A10F0807F09D005
S214400F604FF4D853C0F2B70340F20002C2F2000278
S214400F70136080E04FF41061C0F23D0140F2000281
S214400F80C2F2000211604FF48063C4F20E03186A86
S214400F9000F07001102902D020296CD109E04FF4EE
S214400FA09050C0F27A0040F20001C2F200010860A0
S214400FB061E04FF4D853C0F2B70340F20002C2F2E9
S214400FC00002136057E04FF48062C4F20E02136AC8
S214400FD013F0807F09D04FF4D853C0F2B70340F2E5
S214400FE00002C2F20002136027E04FF41063C0F222
S214400FF03D0340F20002C2F2000213604FF48063E9
S214401000C4F20E031A6A02F07003102B02D0202B93
S21440101013D109E04FF49053C0F27A0340F2000235
S214401020C2F20002136008E04FF4D853C0F2B70390
S21440103040F20002C2F2000213604FF48063C4F232
S2144010400E031A6B02F00303022B4FF48062C4F2C5
S2144010500E0207BF906A916AD06AD16A40F20003D6
S214401060C2F20003C0F30A401A6800FB0220C9B26D
S214401070B0FBF1F21A604FF48062C4F20E02106BBD
S21440108000F0700170290ED140F20003C2F2000356
S21440109018684AF6AB22CAF6AA22A2FB00014FEA1B
S2144010A05100186070474FF48063C4F20E031A6B09
S2144010B040F20000C2F20000C2F30211036823FAB5
S2144010C001F30360704700BF42F6FF43C0F231139E
S2144010D098420CD84FF42061C4F20E014FF0806065
S2144010E008604FF44063C4F20E031860704745F63C
S2144010F0FF11C0F2622188420ED84FF42060C4F23D
S2144011000E004FF48073C0F2004303604FF4406219
S214401110C4F20E021360704748F2FF62C0F2933288
S21440112090420ED84FF42062C4F20E024FF4007381
S214401130C0F2004313604FF44061C4F20E010B60EE
S21440114070474BF2FF33C0F2C44398420ED84FF478
S2144011502062C4F20E024FF44071C0F200411160AA
S2144011604FF44060C4F20E00016070474EF2FF013B
S214401170C0F2F55188420CD84FF42061C4F20E01FB
S2144011804FF0042008604FF44063C4F20E0318602A
S21440119070474FF42060C4F20E004FF4A063C0F2D4
S2144011A0004303604FF44062C4F20E02136070477F
S2144011B040F6D803C2F20003196841B940F6D80396
S2144011C0C2F2000343F65812C2F200021A6040F61A
S2144011D0D801C2F200010B68181847F6FC72C2F23A
S2144011E00202824206DB014640F6D800C2F2000008
S2144011F0016001E04FF0FF33184670474FF0FF3074
S214401200704700BF4FF400534B604FF000007047EC
S2144012104FF00100704700BF4FF00000704700BF1E
S214401220F0B583B004460D464FF0000301934FF4EB
S214401230C060C4F20E0084420DD14FF4C066C4F2C2
S2144012400E0640F65157C0F2400730462946B8478A
S2144012500028FAD129E04FF40061C4F20E018C4216
S2144012600DD14FF40064C4F20E0440F65156C0F25D
S214401270400620462946B0470028FAD12AE04FF4D7
S2144012808042C4F2020294420FD14FF48044C4F22A
S214401290020440F68956C0F24006204601A9B047EF
S2144012A00028FAD1019B2B7014E04FF40040C4F2A2
S2144012B0020084420ED14FF40044C4F2020440F6C9
S2144012C08956C0F24006204601A9B0470028FAD108
S2144012D00199297003B0F0BD70B50C464FF4C06359
S2144012E0C4F20E0398420FD14FF4C065C4F20E0507
S2144012F040F63956C0F2400628462146B0470028F8
S214401300FAD14FF0010070BD4FF40061C4F20E01F7
S21440131088420FD14FF40065C4F20E0540F63956A8
S214401320C0F2400628462146B0470028FAD14FF082
S214401330010070BD4FF48042C4F2020290420FD1C9
S2144013404FF48045C4F2020540F66956C0F24006A6
S21440135028462146B0470028FAD14FF0010070BD1C
S2144013604FF40043C4F2020398420FD14FF40045B5
S214401370C4F2020540F66956C0F2400628462146A9
S214401380B0470028FAD14FF0010070BD4FF0000082
S21440139070BD00BFF8B54FF00000C4F2020040F642
S2144013A0C143C0F24003984710F0010F53D040F6B7
S2144013B0E002C2F20002106800F1010010600A2844
S2144013C049D140F20401C2F200010C788CB140F6DB
S2144013D0DC00C2F20000016801F1010101606429ED
S2144013E017D140F20404C2F200044FF00005257005
S2144013F00FE040F6DC05C2F200052E6806F1FF3726
S2144014002F6037B940F20403C2F200034FF00102E6
S2144014101A704FF0000640F6E007C2F200073E6042
S21440142040F62814C2F2000426603546C4F202058F
S21440143040F6DC07C2F20007284621463A6840F6E6
S2144014408546C0F24006B0474FF001032360284669
S21440145021463A68B047F8BD2DE9F04788B040F2DB
S2144014607D13C0F24003984740F21D30C0F2400062
S21440147080474FF0080040F68D15C0F24005A8475B
S2144014804FF4C066C4F20E0640F62011C2F20001C8
S2144014900E6040F61C14C2F2000441F2D922C0F29B
S2144014A04002226040F61817C2F2000741F221239C
S2144014B0C0F240033B604FF46064C0F2277401946E
S2144014C04FF4E13002904FF4006103914FF0080072
S2144014D0A847304601A940F6F546C0F24006B04758
S2144014E040F20807C2F200073A6890684FF00001E1
S2144014F041F29176C0F24006B0473B6858684FF0DC
S2144015000001B04742F61840C0F2400041F28171F7
S214401510C0F2400188474FF01F00A8474FF0000632
S214401520C4F2020630464FF0000140F6B545C0F220
S2144015304005A84730464FF00101A84748F2A06052
S214401540C0F2010005904FF000050695079430461E
S21440155005A940F63534C0F24004A04740F62814AA
S214401560C2F200042581A5724FF00B0AC4F804A00D
S2144015704FF06409C4F81090E56025603046214677
S21440158040F68138C0F24008C047304629462A46D1
S21440159040F6C543C0F2400398474FF4807222811C
S2144015A04FF00107A772C4F804A0C4F81090E56095
S2144015B0276030462146C047304639462A4640F6E0
S2144015C0DD44C0F24004A0474FF46141CEF2000132
S2144015D04FF00040C1F88000C1F8800181F81F53E9
S2144015E008603046294640F6A945C0F24005A8475F
S2144015F030463946A847FEE72DE9F8439846234B40
S2144016001C680646D4F848010F46914618B904F5BA
S214401610A670C4F8480141681F2916DD1C4818B951
S2144016204FF0FF30BDE8F8834FF4C87000F020FE5E
S2144016300028F5D0D4F84821002545600260C4F85B
S2144016404801C0F88851C0F88C51B6B14468D0F80B
S2144016508811012200EB840302FA04F21143022EA1
S214401660C3F88890C0F888111C46C3F8088104D196
S214401670D0F88C311A43C0F88C2141688B1C4A1C28
S21440168040F8237042600020BDE8F883682C400094
S2144016907122400070B5084B084CE01A841003EBEA
S2144016A084060025043D1CB172599047013CF9E779
S2144016B0BDE8704001F0E6BA902C4000942C400003
S2144016C038B50E4D0E4BE81A85100024AC4205D0B6
S2144016D00B4951F8242090470134F7E701F0C8FA47
S2144016E00849094A541AA5100024AC4205D0054BB7
S2144016F053F8240080470134F7E738BD7C2C40007F
S2144017007C2C40007C2C4000842C400082180346F1
S214401710934202D003F8011BFAE7704730B50546FE
S21440172089B008460C4600F0B1F8012143180791ED
S214401730114903930B68114A059004A801909868D4
S2144017400692022202928289049402F400510BB25D
S21440175033B9416E42F4005221F40053828143660D
S2144017602846A96801AA00F079FB00280CBF0A2089
S2144017704FF0FF3009B030BD080000206E2C40000E
S214401780024B01461868FFF7C9BF00BF080000209B
S21440179000290CBF022200224FF4806300F000B8FC
S2144017A02DE9F0411D46374B044618680E4617464D
S2144017B0984618B1826B0AB900F0D0F9022F5DD86E
S2144017C0002D5BDB2146D8F8000000F0D3F8A18955
S2144017D001F0800300201AB26060A06122B129485F
S2144017E02169006800F084FAA189022F21F0830362
S2144017F0A38112D036BB002D08BF4FF48065284623
S21440180000F036FD0646C8B94FF4806000F030FD63
S214401810064688B94FF0FF3000E00020A18941F02D
S2144018200203A38104F1430100220123A260216048
S21440183021616361BDE8F0814FF48065A28942F082
S2144018408000A081012F05D1A1896A4241F00103A1
S214401850A381A2610B48A28901680B4B02F00800E5
S21440186000B2CB6326602661656148B112F0030F73
S21440187018BF0025A5600020BDE8F0814FF0FF307E
S214401880BDE8F08108000020D11A4000034613F856
S214401890012B002AFBD1181A0138704738B52C4B5B
S2144018A0054618680C4618B1826B0AB900F056F91E
S2144018B0A08900F008010BB20BBB00F0100211B279
S2144018C011B94FF0FF3038BD00F0040003B293B1B9
S2144018D0216B41B104F14002914202D0284600F00B
S2144018E007FA00212163A089216920F02403002201
S2144018F0A38162602160A08940F00803A381226929
S2144019004AB9A18901F42070B0F5007F03D028467B
S214401910214600F041FCA38913F0010205D061691D
S21440192000224842A260A06107E003F0020108B22C
S21440193008B9636900E01346A360236933B9A289F6
S21440194002F0800108B20028BBD138BD002038BD67
S21440195008000020024B13B1024800F005B870475B
S214401960000000009516400001460020024603464F
S214401970FFF742BE2DE9F0410C46054618B1836B91
S2144019800BB900F0EBF8A28932B302F0080001B2BE
S214401990002962D1616842F400600029A08102DC1F
S2144019A0E36B002B18DDA66AB6B102F48052002025
S2144019B012B22F6828600AB1226D10E00123284633
S2144019C0E169B0470246013009D1296839B11D297D
S2144019D001D016294FD12F600020BDE8F081A6899E
S2144019E006F004010BB22BB16068266B121A0EB1DA
S2144019F0E16B521AE169A66A00232846B047411CAB
S214401A0005D12A681AB11D2A01D0162A1FD1A389EA
S214401A1023F400620021A28103F4805322696160AE
S214401A2019B2226021B1421C01D12A6802B9206550
S214401A30216B2F600029CFD004F14000814202D0B4
S214401A40284600F055F900202063BDE8F081A389C0
S214401A5043F04001A181BDE8F0812669002EBBD04D
S214401A609207236808BF6269266018BF0022C6EB4B
S214401A700308A26012E0A38943F04000A0814FF023
S214401A80FF30BDE8F081676AE16928463246434642
S214401A90B8470028EFDD3618C0EB0808B8F1000F4D
S214401AA0F1DC99E7014620B904480549006800F092
S214401AB051BB044B1868FFF75DBF00BF682C400061
S214401AC0751940000800002000207047002070472D
S214401AD0014900F01EBB00BF512B4000002310B54B
S214401AE0044603604360836081814366C28103612C
S214401AF0436183611946082200F15C00FFF706FE49
S214401B0004480549054A064BE46120626162A262C8
S214401B10E36210BDF92940001F2A40005B2A4000BE
S214401B207F2A400070B568254D430E4605F10C01EE
S214401B3000F0AEFB044640B100F10C00002184E802
S214401B404200A0602A46FFF7E1FD204670BD024BEA
S214401B501868FFF7BDBF00BF682C400038B5836BE0
S214401B600446EBB90F4AC0F8E0320125C2638563EC
S214401B7004F53B7103201A46C4F8E402C4F8E812A0
S214401B8060680421FFF7AAFFA06809212A46FFF7EC
S214401B90A5FFE06812210222BDE83840FFF79EBF4D
S214401BA038BD00BFD11A4000F8B51D4B1E68074629
S214401BB0B06B10B93046FFF7D1FF06F53876B468FB
S214401BC07168013904D4B4F90C5085B16834F8E72B
S214401BD032680AB13668F2E738460421FFF7A2FFBA
S214401BE030600028F6D10C243C60044615E04FF6E1
S214401BF0FF730120A081E38165662560A56065606E
S214401C0025616561A56104F15C0029460822FFF75D
S214401C107DFD256365636564A5642046F8BD00BF09
S214401C20682C40007047704770477047024B034926
S214401C30186800F06EBA00BF08000020C91A4000BD
S214401C40024B0349186800F064BA00BF0800002041
S214401C50CD1A4000F8B5234D0E46044600F04BFD25
S214401C60AB685F6827F0030707F6EF70811B21F427
S214401C707F6222F00F06A6F58056B6F5805F04DA3E
S214401C80204600F039FD0020F8BD0021204600F037
S214401C90A3FEAB68D9198842F2D17142204600F0C3
S214401CA09BFE013010D10021204600F095FEAB6827
S214401CB0C21A0F2AE4DD0C490968401A0B4942F063
S214401CC0010208605A60DBE7084BA8681A68BF1B29
S214401CD047F001074760961B20461E6000F00CFD4B
S214401CE00120F8BD3804002040080020E808002005
S214401CF0F8B506460D46002900F0A68000F0FBFC2D
S214401D0055F804CC514FA5F108032CF001029C185D
S214401D10B96860688C4220F003000CF001011CD1C9
S214401D20821839B955F8081C5B1A52189868D96851
S214401D30C1608860454842F0010159608360444B69
S214401D4019688A4204D3434A30461168FFF782FF37
S214401D503046BDE8F84000F0CFBC606059B955F851
S214401D60085C5B1B52199D680837BD4205D0DF688A
S214401D70EF60BD6002E0002100E0012125186D689B
S214401D8015F0010F0FD1121849B9A068324DA8427C
S214401D9005D1EB60AB60D8609860012103E0E06855
S214401DA0A468E060846042F0010058609A500029C0
S214401DB0CED1B2F5007F0CD22449D208901001242F
S214401DC004FA00F448682043486001EBC20081688A
S214401DD035E0540A042C02D89409383416E0142C02
S214401DE001D85B3412E0542C02D8140B6E340DE04C
S214401DF0B4F5AA7F02D8D40B773407E040F25455A6
S214401E00AC4202D8940C7C3400E07E240F4D05EBA7
S214401E10C400816881420CD168680122A41002FA8D
S214401E2004F444EA00026A60084608E08968814291
S214401E3004D04C6824F00304A242F7D3C868D860A4
S214401E4099608360CB6083E7F8BD00BF380400200C
S214401E5044080020E40800204004002093682DE950
S214401E60F74F06460C4691460BB900204FE188894D
S214401E7000F008010AB20AB123695BB93046214630
S214401E80FFF70CFD30B1A189092241F04000A08146
S214401E9032603AE1B4F80CA0D9F800800AF0020C9F
S214401EA00FFA8CF515B34FF0000A574637B9D8F8F5
S214401EB000A0D8F8047008F10808F7E7B7F5806F77
S214401EC034BF3B464FF480633046E169656A52460C
S214401ED0A847002840F31581D9F8081082443F1AD5
S214401EE0081AC9F808000028E0D1BEE71AF0010A2F
S214401EF004D0AB4601952F46AA46C7E0554635B9AD
S214401F00D8F800A0D8F8045008F10808F7E7A289E6
S214401F10D4F808B002F4007003B2002B52D05D45EE
S214401F2040D312F4906F3BD02169276863694FF025
S214401F30030B0BFB03F302207F1A93FBF0FC7B1C86
S214401F40581902F48062844528BF604613B2019057
S214401F5030467BB1019900F09BF9834698B12169E0
S214401F603A4600F0A5FBA18921F4906040F080023B
S214401F70A2810BE0019A00F0C1FB834630B930469F
S214401F802169FFF7B5FE0C233360BAE00199C4F827
S214401F9010B00BEB0703CF1B23606161AB46A76015
S214401FA05D4500D2AB465A465146206800F089FB54
S214401FB0A0682368CBEB000203EB0B01A260216014
S214401FC0AB462AE02068216988420FD95D450DD985
S214401FD051465A4600F075FB226802EB0B00206023
S214401FE021463046FFF7C6FCB8B18AE063699D4299
S214401FF008D3676AE16930465246B847B0F1000BED
S2144020000BDC7EE051462A4600F05BFBA268236864
S214402010501B5919AB46A0602160D9F80800CBEB9D
S2144020200002DA44CBEB0505C9F80820002A7FF405
S21440203066AF1AE70198002832D020682169A56863
S214402040D4F814E0D34534BF5B465346884237D96C
S2144020507544AB4234DD39462A4600F032FB2068F0
S2144020604319236030462146FFF784FC002848D1B8
S214402070BBEB050B3DD0D9F808207F19C5EB0A0A03
S214402080551BC9F80850002D3FF4EFAEBAF1000FCB
S214402090D0D1002198E88004019108F10808F5E7BE
S2144020A038460A21524600F0F5FA20B100F1010107
S2144020B0C7EB010B01E00AF1010B01220192BCE7DC
S2144020C0734508DB656AE16930463A467346A84779
S2144020D0051ECDDC15E01A463946009300F0F1FAAD
S2144020E0009B2568A068E918C21AA26021601D46B8
S2144020F0BEE730462146FFF73DFC10B9CDF804B0A8
S214402100B9E7A28942F04003A3814FF0FF30BDE813
S214402110FE8F2DE9F04104468846FFF783FD04F51F
S214402120387400268CB1A5686768013F0BD4B5F9B2
S2144021300C3033B1B5F90E00431C02D02846C047D8
S21440214006436835F1E72468ECE7FFF76CFD304658
S214402150BDE8F0812DE9F84380468946FFF762FDE9
S21440216008F53874002694B1A5686768013F0CD41A
S214402170B5F90C303BB1B5F90E00431C03D04046D0
S2144021802946C84706436835F0E72468EBE7FFF77B
S2144021904AFD3046BDE8F883F0B58B890C4603F01F
S2144021A002010AB291B00646002A3FD1B4F90E1099
S2144021B000290DDAA78907F0800247F4006310B2C1
S2144021C000280CBF4FF480654025A381002720E0FF
S2144021D001AA00F0C5FC0028ECDB029800F470452C
S2144021E0B5F500535F425F41B5F5004F0BD1A16A8C
S2144021F01D4A914207D1A3894FF4806543F480611C
S214402200A181E56405E0A08940F40065A5814FF40E
S21440221080653046294600F03BF870B9A38903F440
S214402220007210B2E8B943F00201A18104F1430301
S214402230012223602361626113E0A2890B4942F0C8
S2144022408003F163A3812060206165614FB1304611
S214402250B4F90E1000F096FC18B1A08940F00101C8
S214402260A18111B0F0BD00BF5B2A4000D11A4000EA
S214402270024B0146186800F00BB800BF080000206B
S214402280024B01461868FFF733BD00BF0800002028
S2144022902DE9F04701F10B04162C064603D934F01D
S2144022A0070401D502E010248C4202D20C2535608A
S2144022B0D9E1304600F01FFAB4F5FC7F14D2A04DA9
S2144022C0E10805EBC100C568854205D105F1080364
S2144022D06D698A1C9D4244D0E868A9686A68C860EF
S2144022E022F00303816059E0620A01D1E2081BE054
S2144022F0042A02D8A209383216E0142A01D85B32E2
S21440230012E0542A02D8220B6E320DE0B2F5AA7FB4
S21440231002D8E20B773207E040F254539A4202D892
S214402320A20C7C3200E07E22854800EBC203DD68CA
S2144023309D4215D0696821F00301081B0F2801DD76
S214402340013A0DE0002809DBEB68AA68D3609A6082
S2144023506B185A6842F00100586090E1ED68E7E774
S214402360013277490D6901F10807BD4268D06868B7
S21440237020F00303181B0F280CDD2B194B610B6153
S21440238044F0010440F001016C60DF609F605960DA
S214402390185074E100284F610F6101DBEB18D8E755
S2144023A0B3F5007F0FD2DB089810012707FA00F735
S2144023B0486807434F6001EBC301E9608B68AB6038
S2144023C0DD608D603CE0580A042802D89809383011
S2144023D016E0142801D85B3012E0542802D8180BB7
S2144023E06E300DE0B0F5AA7F02D8D80B773007E004
S2144023F040F25457B84202D8980C7C3000E07E2019
S214402400DFF83CE10EEBC007B968B9420ED1871041
S214402410012303FA07F0DEF8047040EA0703CEF81B
S2144024200430084608E08968B94204D0486820F07D
S21440243003008342F7D3C868E860A960CD60856032
S2144024403F4F95100120796800FA05F38B425DD81E
S2144024500B4205D122F003025B0004320B42FBD054
S214402460374D05EBC20E77461046FD68BD422DD06F
S214402470696821F0030CC4EB0C010F2913DD2B19FE
S21440248044F00104EA686C6055F8080F5950C26081
S21440249090602B4A41F00100536113610832DA60C4
S2144024A09A6058600CE000290EDB05EB0C00E968EA
S2144024B0426842F00103436055F8080FC1608860E7
S2144024C0304600F019F9DEE0ED68CFE701308107CD
S2144024D005F10807C9D17146950705D1184A5568D0
S2144024E025EA0305556005E0A1F108070968013AA9
S2144024F0B942F1D0124F7F685B00BB4206D82BB181
S21440250002463B42ACD104325B00FAE70C4B9F6874
S214402510786820F00309A145194604D3C4EB0900A6
S2144025200F2800F3A280074AD1F808341568013313
S21440253007EB090A04EB050806D108F110080BE082
S21440254038040020E408002008F5805000F10F0110
S21440255021F47F6222F00F083046414600F03CFAF4
S214402560421C054671D0504502D2484B9F426CD122
S2144025704748464A4168554508EB0103436007D142
S214402580290505D19568C84448F00100686051E0C7
S214402590D2F80804421C03D13C4AC2F8085405E06D
S2144025A0CAEB050A03EB0A01394B596015F00700E0
S2144025B01CBFC0F108002D1805EB080C00F5805133
S2144025C04FEA0C5EA1EB1E584146304600F004FA36
S2144025D02F4A431C536808BF4FF0000808EB03011E
S2144025E008BF28465160401B284A00EB080343F0CA
S2144025F001019742956069601CD0B9F10F0F02D86F
S21440260001226A6021E07D68A9F10C0929F00709DA
S21440261007EB090305F00102052149EA0200B9F17A
S2144026200F0F78605960996004D9304607F1080169
S214402630FFF75EFB164A5368D16A156B8B4288BF1C
S214402640D362AB4284BF124D2B63104882685368F6
S21440265023F00301A142C4EB010001D30F2804DCA0
S214402660304600F049F800250DE0084A956844F0E9
S21440267001032C1940F001016B60946061603046A4
S21440268000F03AF808352846BDE8F08738040020C0
S214402690E408002010B5C9B2034682189342184693
S2144026A004D0047801338C42F8D100E0002010BDFD
S2144026B010B50023934203D0CC5CC4540133F9E7F1
S2144026C010BD814270B50ED28C18A0420BD2851830
S2144026D0134613F1FF3305D3514266186918F65C6A
S2144026E0CE54F6E770BD0023934203D0CC5CC4546E
S2144026F00133F9E770BD7047704700002DE9F84F89
S214402700814616460C4621B91146BDE8F84FFFF7FC
S214402710BFBDFFF7F0FF06F10B0754F8045C162F19
S214402720A4F1080B25F0030803D937F0070701D5B5
S21440273002E01027B74204D20C20C9F80000002659
S21440274045E1B84580F21A81A24A91680BEB08032E
S2144027508B4206D0586820F0010298184268D0078D
S21440276026D45A688B4222F0030000EB080A18D1A0
S21440277007F1100292451DDB0BEB0705C7EB0A0A73
S2144027804AF00101696054F8042C924E02F00103AD
S2144027901F43B56044F8047C4846FFF7ADFF264625
S2144027A015E1BA4506DBDD689E68F560AE60E6E09A
S2144027B000200346EA0700F1918054F8085CC5EB18
S2144027C00B056A6822F00302002B51D002EB080A80
S2144027D08B42824445D107F110039A4548DB2E468A
S2144027E0E96856F8083FA8F10402242AD9608B60AD
S2144027F025D8132A1BD92168A96063681B2AEB6079
S21440280003D805F11000083412E0A0682861E1689A
S214402810242A696103D005F11800103408E02269C3
S214402820AA61636905F12000EB61183400E0304688
S2144028302168016062684260A368836003E03046B6
S2144028402146FFF73EFFE819C7EB0A0A4AF00102A5
S21440285042606B685F49886003F0010007436F6021
S21440286088E0BA4504DBD9689868C160886003E0B0
S21440287002EB080ABA4531DB2846EB6850F8081FD9
S214402880A8F10402242ACB60996023D8132A1AD9C7
S2144028902068A86066681B2AEE6003D805F1100021
S2144028A0083410E0A3682B61E168242A696103D0EC
S2144028B005F11800103406E02269AA6160691834F0
S2144028C0E86105F120002668066063684360A168F9
S2144028D0816055E02146FFF7F4FE51E03146484618
S2144028E0FFF7D6FC0646002844D054F8041C21F0D6
S2144028F00103A0F108020BEB03018A4206D150F80F
S214402900046C26F0030505EB080A38E0A8F104023B
S214402910242A28D8132A1ED92368036061681B2AF4
S214402920416004D800F1080004F1080214E0A068F1
S214402930B060E368242AF36004D006F1100004F186
S214402940100209E022693261616906F1180071617E
S21440295004F1180200E022461368036051684160A3
S2144029609268826002E02146FFF7ABFE4846214669
S214402970FFF7BEF94846FFF7BFFE28E0C2465D4671
S214402980C7EB0A000F286A6811D9E91902F0010658
S214402990374340F0010308186F604B60426842F0CE
S2144029A00106466008314846FFF7A2F90AE002F001
S2144029B0010605EB0A014AEA06036B60486840F0E8
S2144029C001024A604846FFF797FE05F10806304682
S2144029D0BDE8F88F3804002038B5064C002305467D
S2144029E008462360FEF7E4FB431C02D1216801B190
S2144029F0296038BD5009002010B50C46B1F90E10BC
S214402A0000F0E2F8002803DB226D1318236510BDA2
S214402A10A38923F48051A18110BD002070472DE981
S214402A20F0411D468B890C4603F4807116460AB267
S214402A3007462AB1B4F90E100022022300F0B2F87D
S214402A40A089B4F90E1020F48053A381384632464C
S214402A502B46BDE8F04100F017B810B50C46B1F96A
S214402A600E1000F09FF8431CA38903D123F4805234
S214402A70A28110BD43F48051A181206510BDB1F9FB
S214402A800E1000F013B8000038B5074C054600207D
S214402A902060084611461A46FDF7F0FB431C02D15B
S214402AA0236803B12B6038BD5009002038B5064C6A
S214402AB00023054608462360FEF7A0FB431C02D1D0
S214402AC0216801B1296038BD5009002070B505461F
S214402AD00C46002939D0FFF7A5F825B1AB6B13B9E2
S214402AE02846FFF73BF8B4F90C605EB3284621460B
S214402AF0FEF740FFE26A06463AB12846E16990474B
S214402B0036EA200628BF4FF0FF36A08900F0800145
S214402B100BB21BB128462169FFF7EAF8216B41B199
S214402B2004F14002914202D02846FFF7E1F8002027
S214402B302063616C21B12846FFF7DAF80021616412
S214402B400023A381FFF76FF800E00E46304670BDC5
S214402B50024B01461868FFF7B9BF00BF08000020C7
S214402B6038B5074C00230546084611462360FEF755
S214402B7049FB431C02D1216801B1296038BD00BF22
S214402B805009002038B5064C002305460846236009
S214402B90FEF73EFB431C02D1216801B1296038BDD7
S214402BA05009002038B5074C0546002020600846EE
S214402BB011461A46FEF730FB431C02D1236803B188
S214402BC02B6038BD5009002038B5074C054600201C
S214402BD02060084611461A46FDF70CFB431C02D1FE
S214402BE0236803B12B6038BD500900200100000067
S214402BF00200000004000000080000001000000072
S214402C00200000004000000080000000000100009E
S214402C1000020000000400002D2D2050574D204C8F
S214402C204544204578616D706C65202D2D0D0A2D2C
S214402C302D2053414D34532D454B32202D2D0D0A1A
S214402C402D2D20436F6D70696C65643A204A756E11
S214402C5020323420323031352030303A34343A3134
S214402C6034202D2D0D0000001000002043000A00E7
S214402C70F8B500BFF8BC08BC9E46704755194000E2
S214402C8045014000F8B500BFF8BC08BC9E467047FA
S208402C901D0140009D
S214402C9400093D0001000000100000200000000074
S214402CA400000000FC02002064030020CC03002047
S214402CB400000000000000000000000000000000CB
S214402CC400000000000000000000000000000000BB
S214402CD4000000006C2C40000000000000000000D3
S214402CE4000000000000000000000000000000009B
S214402CF4000000000000000000000000000000008B
S214402D04000000000000000000000000000000007A
S214402D14000000000000000000000000000000006A
S214402D24000000000000000000000000000000005A
S214402D34000000000000000000000000000000004A
S214402D440000000000000000010000000000000039
S214402D540E33CDAB34126DE6ECDE05000B000000FE
S214402D64000000000000000000000000000000001A
S214402D74000000000000000000000000000000000A
S214402D8400000000000000000000000000000000FA
S214402D9400000000000000000000000000000000EA
S2144030D43804002038040020400400204004002027
S2144030E448040020480400205004002050040020D7
S2144030F45804002058040020600400206004002087
S2144031046804002068040020700400207004002036
S21440311478040020780400208004002080040020E6
S2144031248804002088040020900400209004002096
S2144031349804002098040020A0040020A004002046
S214403144A8040020A8040020B0040020B0040020F6
S214403154B8040020B8040020C0040020C0040020A6
S214403164C8040020C8040020D0040020D004002056
S214403174D8040020D8040020E0040020E004002006
S214403184E8040020E8040020F0040020F0040020B6
S214403194F8040020F8040020000500200005002064
S2144031A40805002008050020100500201005002012
S2144031B418050020180500202005002020050020C2
S2144031C42805002028050020300500203005002072
S2144031D43805002038050020400500204005002022
S2144031E448050020480500205005002050050020D2
S2144031F45805002058050020600500206005002082
S2144032046805002068050020700500207005002031
S21440321478050020780500208005002080050020E1
S2144032248805002088050020900500209005002091
S2144032349805002098050020A0050020A005002041
S214403244A8050020A8050020B0050020B0050020F1
S214403254B8050020B8050020C0050020C0050020A1
S214403264C8050020C8050020D0050020D005002051
S214403274D8050020D8050020E0050020E005002001
S214403284E8050020E8050020F0050020F0050020B1
S214403294F8050020F805002000060020000600205F
S2144032A4080600200806002010060020100600200D
S2144032B418060020180600202006002020060020BD
S2144032C4280600202806002030060020300600206D
S2144032D4380600203806002040060020400600201D
S2144032E448060020480600205006002050060020CD
S2144032F4580600205806002060060020600600207D
S214403304680600206806002070060020700600202C
S21440331478060020780600208006002080060020DC
S214403324880600208806002090060020900600208C
S2144033349806002098060020A0060020A00600203C
S214403344A8060020A8060020B0060020B0060020EC
S214403354B8060020B8060020C0060020C00600209C
S214403364C8060020C8060020D0060020D00600204C
S214403374D8060020D8060020E0060020E0060020FC
S214403384E8060020E8060020F0060020F0060020AC
S214403394F8060020F806002000070020000700205A
S2144033A40807002008070020100700201007002008
S2144033B418070020180700202007002020070020B8
S2144033C42807002028070020300700203007002068
S2144033D43807002038070020400700204007002018
S2144033E448070020480700205007002050070020C8
S2144033F45807002058070020600700206007002078
S2144034046807002068070020700700207007002027
S21440341478070020780700208007002080070020D7
S2144034248807002088070020900700209007002087
S2144034349807002098070020A0070020A007002037
S214403444A8070020A8070020B0070020B0070020E7
S214403454B8070020B8070020C0070020C007002097
S214403464C8070020C8070020D0070020D007002047
S214403474D8070020D8070020E0070020E0070020F7
S214403484E8070020E8070020F0070020F0070020A7
S214403494F8070020F8070020000800200008002055
S2144034A40808002008080020100800201008002003
S2144034B418080020180800202008002020080020B3
S2144034C42808002028080020300800203008002063
S20C4034D4FFFFFFFF00000200AD
S804400DAD01
