:020000040040BA
:10000000F03D00201D304000193040001930400004
:100010001930400019304000193040000000000045
:100020000000000000000000000000001930400047
:100030001930400000000000193040001930400025
:10004000193040001930400019304000193040008C
:10005000193040001930400019304000193040007C
:100060001930400019304000000000004D2C4000C5
:10007000692C4000852C40001930400019304000A8
:10008000000000000000000019304000193040005E
:10009000193040001930400019304000193040003C
:1000A000193040001930400019304000193040002C
:1000B000193040001930400019304000193040001C
:1000C00019304000193040001930400008B505488B
:1000D000054B191A062900D808BD044A002AFBD08E
:1000E0009047F9E7609840006398400000000000E6
:1000F00008B50748074B191A8A1002EBD27359103A
:1001000000D108BD044A002AFBD09047F9E700BFA0
:1001100060984000609840000000000010B5064C58
:10012000237843B9FFF7D2FF044810B10448AFF376
:1001300000800121217010BD000900200000000096
:100140006098400008B5084B1BB108480849AFF358
:1001500000800848016811B1074A02B19047BDE824
:100160000840FFF7C5BF00BF0000000060984000D6
:1001700004090020609840000000000008B540F627
:100180002613C2F20003187830B94FF0000042F293
:10019000D131C0F24001884708BD00BF10B540F61C
:1001A0002013C2F200031A6892F8224040F626118A
:1001B000C2F2000108781168527C231C18BF012389
:1001C00042F25D34C0F24004A04710BD08B540F6CD
:1001D0002013C2F200031868818941F609304FEA02
:1001E000014142F2F932C0F24002904770B140F64C
:1001F0002013C2F20003186800F1120042F23141EC
:10020000C0F2400188474FF0010008BD4FF00000E8
:1002100008BD00BF10B5002840F0A88040F20C03D4
:10022000C2F2000398684FEA501202F5001101F281
:1002300007734FEA4322D26B00F01F004FF0010119
:1002400001FA00F313421DD040F20C02C2F2000288
:10025000907B88420CD140F61E13C2F2000319783D
:1002600031B14EF21000CEF200004FF000020260F9
:1002700040F20C03C2F200034FF0040199734FF0F7
:10028000020010BD40F20C02C2F20002907B042872
:1002900031D140F20C01C2F200014FF001028A7329
:1002A0004EF21003CEF20003186888B940F61E1013
:1002B000C2F2000002704EF21003CEF200034EF2C2
:1002C000C011C0F2E40159601A604FF0020010BD85
:1002D00040F61E11C2F200014FF000020A704CF607
:1002E0002520C0F2820040F20103C2F200039847C9
:1002F0004FF0020010BD012816D140F61E11C2F2C7
:1003000000010B78002B3AD04EF21002CEF2000220
:10031000106810F4803F2CD04EF21001CEF2000194
:100320004FF000030B602AE040F20C00C2F2000024
:10033000817B032920D040F62614C2F200044FF03E
:100340000003237040F20C04C2F2000440F62012B5
:10035000C2F20002146040F29D10C0F240008047DB
:10036000A07B022814BF0020012010BD4FF0040024
:1003700010BD4FF0020010BD4FF0030010BD40F261
:100380000C00C2F200004FF0020282734FF4D4510D
:10039000C0F2060101604FF0010343744FF0000208
:1003A00080F82220C0E700BF08B540F20C03C2F27B
:1003B00000034FF004029A7340F62610C2F20000C8
:1003C0004FF0FF01017042F21933C0F24003984729
:1003D00008BD00BF2DE9F04F95B040F21523C0F2E3
:1003E000400398470446012805D040F27D11C0F231
:1003F00040018847F5E340F62010C2F20000016892
:100400004FF00102CA734FF000050D748D8142F266
:10041000D533C0F2400398474FF48040294642F25A
:10042000F932C0F240029047002800F07E8345F286
:1004300008504FF4D57142F2F933C0F240039847A7
:10044000002800F0808342F22940C0F2400080473B
:10045000B0F1FF3F00F07A834FEA00514FEA1152AA
:10046000B2F5D57F40F061834FF0010670E341F2B1
:1004700037174FF0000842F2F935C0F240054FF44B
:10048000004942F2294AC0F2400A38464146A8478C
:10049000002840F0BC8366E338464146A847002860
:1004A00000F061834946C4F21F0144F22950002E36
:1004B00008BF4FF4FC11A847002800F05483D04730
:1004C00000280DDA10F0804F00F0628340F6201211
:1004D000C2F200021368D87B40F00801D97357E3D9
:1004E0000BF1FF3B38464146A847002840F0B68351
:1004F00039E34FF40045C4F21F0544F2015642F2BD
:10050000F937C0F2400742F22949C0F240093046AB
:100510002946B847002840F0688344E3304629461E
:10052000B847002800F03F83C84700280CDA00F0E5
:10053000C041B1F1804F40F03983A5480368DA7BB0
:1005400042F00801D97331E308F1FF3830462946FB
:10055000B847002840F0528325E39D4801684FF0DA
:1005600001028A8141F203104FF48031994B984780
:10057000002800F0218198488047002800F01F8162
:1005800093490B689A7CC2F3830000F1FF32032A7F
:1005900003D8DFE802F0060A0E124FF012001874BA
:1005A0000EE04FF0140119740AE04FF022021A74A1
:1005B00006E04FF03000187402E04FF0400119746B
:1005C0005A7D02F00700854951F820104FF47A70E7
:1005D00000FB01F1C2F3C302814850F8222002FB64
:1005E00001F11960997E187E5A7E4FEA820242EA32
:1005F000802040EAA1114FEA01524FEA125112F550
:10060000801F15D0187FDA7E4FEA420242EAE010DE
:1006100001F1010100F0070202F1020201FA02F108
:10062000D87D00F00F0201FA02F14FEA91205860E4
:100630009B8943F207104FEA0341664A904700281E
:1006400000F0C080624D2968087C3F2840F29C8001
:100650004FF00001009141F20810C0F208004FF481
:1006600000724FF001035F4DA847002800F0A882F8
:100670004FF000055C4E02A8B047002800F0A082B1
:1006800005F10105ADB2322DF5D1029F07F002034D
:10069000DEB24F4A1068877E017E437E4FEA8302B6
:1006A00042EA812040EAA7174FEA075111F5801F5F
:1006B0001AD14D4F03A8B847002800F0818205F1F8
:1006C0000105ADB2352DF5D9414B1A6803984FEAB3
:1006D0005007576008E003A8B847002800F0708270
:1006E00005F10105ADB200E03F4F7F2DF3D96AE27D
:1006F0003E4D28783E4A9047054604280BD04FF4DB
:100700000071C0F2B7114FF00000C0F2B710082D11
:1007100018BF014603E04FF48071C0F2B71143F2F5
:1007200006102C4B9847002800F055823149884725
:1007300010F0800F40F04F82254A106845742E4B10
:1007400098472E49884738B336B343F206104FF422
:100750008071C0F2B9311F4A9047002800F03E82F4
:100760002448804710F0800F40F03882184E3768D8
:100770004FF0010587F822504FF4EA43C0F21933D5
:100780003B601D49884707E01B4EB04704E04046E8
:100790003946B04740B118E04FF00A0541F2101851
:1007A0004FF400770B4EF2E705F1FF3212F0FF0530
:1007B000EDD14FF00000A9E14FF00000A6E14FF0AD
:1007C0000000A3E14FF00000A0E14FF001009DE127
:1007D00020090020F9234000CD0140008C88400012
:1007E000A8884000912440006D2540002609002083
:1007F00049234000292440009D014000552340002A
:1008000045F602304FF0000142F2F932C0F24002E8
:100810009047002800F0898145F203104FF0000155
:1008200042F2F933C0F240039847002800F07D817E
:1008300040F62015C2F200052E6842F22941C0F2AE
:10084000400188474FEA1040B0812A68D37B13F0FB
:10085000010F56D040F2CD11C0F240018847002868
:1008600000F063812B685A7D02F0070048F68C0186
:10087000C0F2400151F820104FF47A7000FB01F1F2
:10088000C2F3C30248F64C00C0F2400050F82220E8
:1008900002FB01F11960987C82090FD0DA7E987E04
:1008A000597E4FEA014141EA0020024322F440010F
:1008B00001F101014FEA4120586022E0997E187E43
:1008C0005A7E4FEA820242EA802040EAA112187F53
:1008D000D97E4FEA410141EAE0104FEA02524FEA65
:1008E000125202F1010200F0070101F1020102FAC5
:1008F00001F0DA7D02F00F0100FA01F04FEA9022D8
:100900005A6040F62013C2F200031A68918943F23C
:1009100007104FEA014142F2F933C0F24003984711
:10092000002800F0028140F62010C2F200000168A9
:10093000CA7B12F0010F51D08B8941F237104FEA78
:10094000034142F2F932C0F240029047002800F021
:10095000EC804FF00103009341F23310C0F2080025
:100960004FF000014FF0080242F29145C0F24005FD
:10097000A847002800F0D98004A84FF00101AE4B31
:100980009847002800F0D180AC488047002800F04C
:10099000CC809DF8101001F00F03012B09D013B18A
:1009A000022B16D10BE0A64A13684FF01000187402
:1009B00014E0A3490B684FF01A021A740EE09DF878
:1009C0001230DB099E48016814BF302220220A74CD
:1009D00004E09B4A10684FF01001017440F62610A5
:1009E000C2F20000007842F24931C0F2400188476B
:1009F000032827D940F62013C2F200031868C27BEF
:100A000012F0010F19D0818941F237104FEA0141EC
:100A100042F2F933C0F240039847002800F0858085
:100A200041F206104FF00201864A904700287CD020
:100A3000834801684FF004034B7440F29D12C0F2EA
:100A40004002904742F25530C0F2400080470028F3
:100A50004AD040F62011C2F200010B68DA7B12F096
:100A6000010F3CD0187C102839D94FF001030093B6
:100A700041F20610C0F208004FF60171C8F2FF0102
:100A80004FF04002704DA84700284ED004A84FF008
:100A90000101694B9847002847D0684988470028DA
:100AA00043D06A4A904710F0800F3ED19DF8200055
:100AB00000F00F030F2B12D09DF82D109DF82C2065
:100AC00051EA022231D1624880475D4B19684FF0EC
:100AD000010281F8222008684FEA40030B6040F2CF
:100AE0009D11C0F24001884740F62012C2F2000278
:100AF0001068C37B13F0010F09D041F210104FF4BE
:100B0000007142F2F932C0F24002904768B140F6FB
:100B10002010C2F2000003684FF00001997340F208
:100B20007D12C0F2400290475BE040F62014C2F212
:100B3000000420684FF00304847340F27D13C0F278
:100B4000400398474DE04FF0000601E04FF00006EB
:100B500040F62013C2F200031868C17B11F0010FA8
:100B60003FF45AAE83E440F62011C2F20001086857
:100B70004FF00203C3734FF480404FF0000142F284
:100B8000F932C0F24002904700287FF4B2ACBDE7D2
:100B900040F62012C2F200021368D87B10F0010F59
:100BA0007FF42EAE38E64FF00000AFE745F6023096
:100BB0004FF00001234B984700287FF4CEACA5E707
:100BC0004FF00000A2E723490878234B98470328F9
:100BD0003FF68EADB5E54FF0000097E74FF000000F
:100BE00094E7204615B0BDE8F08FC8470028FFF60F
:100BF0009EAC41F2690808F1FF388FE4C84700282D
:100C0000FFF695ACB8F101087FF488ACCBE7494614
:100C1000C4F21F0144F22950002E08BF4FF4FC110A
:100C2000A84700289FD0D0470028FFF64BAC40F6DD
:100C3000350B0BF1FF3B2FE40126400071264000ED
:100C400020090020F923400091244000292440007D
:100C5000D523400026090020492340004946C4F21C
:100C60001F0144F22950002E08BF4FF4FC11A84781
:100C700000283FF478AFD0470028FFF623ACBBF143
:100C8000010B7FF409AC6EE708B540F21523C0F202
:100C90004003984758B940F27D10C0F240008047A9
:100CA00040F62011C2F200010A68D07B08BD4FF067
:100CB000000008BD08B540F21523C0F24003984774
:100CC00058B940F27D10C0F24000804740F6201134
:100CD000C2F200010A68506808BD4FF0000008BD6C
:100CE0004FF00000704700BF2DE9F04F83B08B46F6
:100CF000924640F21523C0F24003984781460028EF
:100D000040F0818040F64158C0F2030840F62016BA
:100D1000C2F2000641F20D1542F2F934C0F240046D
:100D200042F22947C0F240073068818928464FEADD
:100D30000141A047002846D0B84710F4807F4AD12F
:100D400008F1FF383268938928464FEA0341A047EB
:100D500000285CD137E04FEA4B2100E059464FF0C4
:100D6000010300934FF40072534642F29144C0F2E3
:100D70004004A04738B940F27D11C0F240018847D5
:100D80004FF005093FE042F22940C0F240008047A1
:100D90004FF00001CEF25841014039B140F27D10D0
:100DA000C0F2400080474FF005092CE040F62412C5
:100DB000C2F20002A2F800A040F61C13C2F2000327
:100DC000A3F800A01FE040F27D12C0F2400290475D
:100DD0004FF0050917E041F21110C0F2080041F28E
:100DE0001214C0F21004BAF1010F88BF204640F679
:100DF0002012C2F200021368D97B01F00804E2B2AB
:100E0000002AABD1A7E7484603B0BDE8F08FB8474A
:100E100010F4807FDFD13068818928464FEA014194
:100E2000A0470028CFD0B84710F4807FD3D1B8F1C5
:100E300002087FF479AFC6E710B50C4642F20163B1
:100E4000C0F24003984748B940F62411C2F20001AD
:100E50004FF000030B804FF0050010BD40F624104A
:100E6000C2F200000288141B04804FF0000010BD85
:100E700008B542F27163C0F240039847002830D0B1
:100E800040F62410C2F20000018800292CD140F65F
:100E90001C12C2F200021388012B07D140F27D110F
:100EA000C0F2400188474FF0000008BD43F20C102B
:100EB0004FF0000142F2F932C0F24002904740B9CF
:100EC00043F20C104FF0000142F2F933C0F240033C
:100ED000984740F27D10C0F2400080474FF000007C
:100EE00008BD4FF0050008BD4FF0000008BD00BF71
:100EF000F0B583B006460F46154640F21524C0F201
:100F00004004A0470446002858D1304640F6E1434B
:100F1000C0F24003984738B140F27D13C0F240035D
:100F200098474FF0070449E049F21810C0F2080052
:100F300049F21911C0F21001012D88BF084640F690
:100F40002012C2F200021668F37B03F00801CAB255
:100F500012B94FEA472100E039464FF001060096EA
:100F60004FF400722B4642F29146C0F24006B04761
:100F700038B940F27D10C0F2400080474FF00504C0
:100F80001CE042F22940C0F2400080474FF00003CD
:100F9000CEF2584303403BB140F27D14C0F240040E
:100FA000A0474FF0050409E040F62411C2F2000109
:100FB0000D8040F61C12C2F200021580204603B0DC
:100FC000F0BD00BF10B50C4642F20173C0F2400301
:100FD000984748B940F62411C2F200014FF00003CF
:100FE0000B804FF0050010BD40F62410C2F2000047
:100FF0000288141B04804FF0000010BD08B542F2B7
:101000007573C0F24003984700282FD040F6241093
:10101000C2F20000018800292BD140F61C12C2F256
:1010200000021388012B07D140F27D13C0F2400368
:1010300098474FF0000008BD43F20C104FF000013C
:1010400042F2F932C0F24002904738B940F27D11C5
:10105000C0F2400188474FF0050008BD40F27D1006
:10106000C0F2400080474FF0000008BD4FF005007F
:1010700008BD4FF0000008BD10B54FF46060C0F22D
:10108000277043F23933C0F2400398474FF0000015
:101090004FF03E0142F64152C0F24002904742F604
:1010A000B154C0F24004A0470028FCD042F6C15021
:1010B000C0F2400080474FF48061C4F20E0143F655
:1010C0000173C2F213038B6242F6D154C0F24004A2
:1010D000A0470028FCD04FF0100042F6A142C0F219
:1010E0004002904743F28110C0F24000804710BD9B
:1010F00008B528B945F69173C0F24003984708BD7A
:101100004FF0010008BD00BF08B530B9084645F6EC
:10111000CD73C0F24003984708BD4FF0010008BDF1
:10112000D0F1010038BF0020704700BF08B528B9D2
:1011300045F6F173C0F24003984708BD4FF0010037
:1011400008BD00BF08B538B90846114646F24D0340
:10115000C0F24003984708BD4FF0010008BD00BF32
:1011600008B538B90846114646F2AD03C0F240034F
:10117000984708BD4FF0010008BD00BF2DE9F843B6
:101180000C46904648BB002A2BDD8F1840F6D056FF
:10119000C2F2000640F6C855C2F200056FEA010926
:1011A00007EB090000F0010930682B68984704F14B
:1011B0000104BC4219D10DE030682B6821469847E4
:1011C00004F10104214630682A68904704F10104C3
:1011D000BC42F1D14046BDE8F8834FF0FF30BDE896
:1011E000F8834FF00000BDE8F883B9F1000FE3D0B9
:1011F00030682A682146904704F10104BC42DBD1E3
:10120000E8E700BF2DE9F8430D46904600F1FF30B6
:10121000022824D832B340F6D056C2F2000640F677
:10122000CC57C2F200074FF0000402F1FF3909F079
:10123000010930683B68095D9847A0421ADA14E05A
:1012400030683B68295D984700280EDB04F10104F3
:1012500030683A68295D904700281DDA05E04FF0B4
:10126000FF3404E04FF0000401E04FF0FF3420466B
:10127000BDE8F88304F10104A045F8D0B9F1000FEE
:10128000DED030683A68295D90470028EDDB04F134
:101290000104A045D4D1EAE704F10104A045CFD16F
:1012A000E5E700BF38B541F25043C4F20E034FF4F6
:1012B00000425A604FF00B0042F6E154C0F2400485
:1012C000A0474FF00C00A0474FF00D00A0474FF093
:1012D00013004FF0605142F63D14C0F24004A047A5
:1012E0004FF014004FF06051A0474FF023004FF033
:1012F0007901C2F60001A0474FF04C004FF05901B0
:10130000C2F60001A0474FF46060C4F20E004FF433
:10131000C0614FF0006242F6B525C0F24005A84713
:101320004FF00105C0F600054FF040002946A047E8
:101330004FF041002946A0474FF042002946A04700
:101340004FF043002946A0474FF044002946A047EC
:101350004FF045002946A0474FF046002946A047D8
:101360004FF047002946A0474FF04B002946A047C1
:101370004FF048002946A0474FF04F002946A047AC
:101380004FF053002946A0474FF04D004FF0405119
:10139000A0474FF01C004FF0C051A0474FF01D0078
:1013A0004FF0C051A0474FF01E004FF0C051A04772
:1013B0004FF01F004FF0C051A0474FF01A004FF000
:1013C000C051A0474FF01B004FF0C051A0474FF055
:1013D00006004FF00101C2F60001A04738BD00BF72
:1013E00070B483B0C0F11100102834BF0646102637
:1013F000002E08BF01264FF000014FF49050C4F2B8
:101400000E004FF400554FF0180445630194019B02
:1014100003F1FF320192002BF9D105630194019B86
:1014200003F1FF320192002BF9D101F10101B14228
:10143000EBD34FF400310191019800F1FF33019398
:101440000028F9D103B070BC704700BF82B04FF4E0
:101450009053C4F20E034FF400525A634FF400301D
:101460000190019901F1FF3301930029F9D102B0F4
:10147000704700BF40F6E843C2F200031878012825
:1014800008D14FF0C2414FF000020A704FF0220322
:101490000B70704702280AD14FF0C2414FF02C0266
:1014A0000A704FF000030B704FF03C00087070475B
:1014B000C0F307424FF00203C6F200131A70C0F3E4
:1014C00007211970C0B21870704700BF2DE9F047AE
:1014D0008146884631F0070A4FD0054641F2B144B3
:1014E000C0F240040AF1FF33C3F3C0060068A0470E
:1014F000D9F80400A047D9F80800A047D9F80C0093
:10150000A047D9F81000A047D9F81400A047D9F88F
:101510001800A047D9F81C00A0474FF0080705F1B4
:10152000200557455DD32AE02868A0476868A04792
:10153000A868A047E868A0472869A0476869A0474D
:10154000A869A047E869A04705F12006286AA047D6
:10155000686AA047A86AA047E86AA047286BA04726
:10156000686BA047A86BA047E86BA04707F110077E
:1015700005F140055745D7D301E04FF00007B845C6
:1015800022D907F1FF3441F2B146C0F240066FEABA
:10159000070000EB080101F0010509EB840454F891
:1015A000040FB04707F10107B8450FD8BDE8F08731
:1015B00004F104056068B04704F108046868B047A6
:1015C00007F10207B845F3D8BDE8F087002DEFD04A
:1015D00054F8040FB04707F10107B845E8D8BDE853
:1015E000F087002EA0D02868A0476868A047A868A8
:1015F000A047E868A0472869A0476869A047A8698C
:10160000A047E869A04707F1080705F120055745FD
:101610008AD3B4E74FF0C2434FF000021A7018703B
:101620004FEA11204FF00203C6F200131870C9B23E
:101630001970704730B44FF0C2434FF000041C7073
:1016400018701546D2B14FF00200C6F200102346C2
:1016500002F1FF3202F00104CA5C027003F10103DF
:10166000012D0DD80AE0CC5C047003F10103CA5CC3
:10167000027003F10103DCB2A542F4D830BC70471C
:1016800064B2002CEFD0CA5C027003F10103DAB23D
:101690009542E8D8F2E700BF30B44FF0C2434FF0B4
:1016A00000041C7018701546D2B14FF00200C6F24B
:1016B0000010234602F1FF3202F001040278CA54FE
:1016C00003F10103012D0DD80AE00478CC5403F195
:1016D00001030278CA5403F10103DCB2A542F4D835
:1016E00030BC704764B2002CEFD00278CA5403F1CA
:1016F0000103DAB29542E8D8F2E700BF82B04FF0BA
:10170000000301930199884217D94FF0000148F274
:101710009F62C0F201020191019B934206D8019B96
:1017200003F101030193019B9342F8D9019B03F15B
:1017300001030193019B8342EDD302B0704700BFC8
:1017400030B440F23404C2F2000424680568A542B3
:1017500024BF04F1FF3505601568AC429CBF04F15D
:10176000FF34146040F23804C2F2000424680D68AB
:10177000A54224BF04F1FF350D601D68AC429CBF3B
:1017800004F1FF341C6004681568AC4284BF056036
:1017900014600A681868824284BF08601A6030BC0E
:1017A000704700BF00B583B04FF0D30069464FF0DB
:1017B000040241F29963C0F2400398479DF8022069
:1017C0009DF8030000EB02218AB249F241339A42AC
:1017D00009D140F6E840C2F200004FF00203037066
:1017E0004FF0000020E04FF0000069464FF0020289
:1017F00041F29963C0F2400398479DF800009DF8BC
:10180000011001EB002290B249F22533984209D130
:1018100040F6E841C2F200014FF001020A704FF0B9
:10182000000001E04FF0010003B000BD08B540F634
:10183000E843C2F200031878012809D14FF00700ED
:1018400040F2331141F21562C0F24002904708BDE8
:10185000022809D14FF029004FF000010A4641F259
:101860003563C0F24003984708BD00BF40F6281119
:10187000C2F20001A1F1040301F56F7103F104024A
:10188000586003F1080350608B42F7D1704700BFE6
:101890002DE9F04182B00D4617461E4640F6E84459
:1018A000C2F200042478012C1ED11FFA80F84FF0F8
:1018B0005000414641F21564C0F24004A04708F1CF
:1018C000FF3808EB07014FF0510089B2A047ADB2D5
:1018D0004FF052002946A04705F1FF35AA194FF0F5
:1018E000530091B2A04737E0022C35D14FEA1023C4
:1018F0008DF80430C1B28DF8051000F1FF30821868
:101900004FEA12248DF8064001F1FF33DF198DF8FC
:1019100007704FF02A0001A94FF0040241F235642C
:10192000C0F24004A0474FEA15218DF80410E8B238
:101930008DF8050005F1FF35AA194FEA12258DF83B
:10194000065000F1FF339E198DF807604FF02B0011
:1019500001A94FF00402A04702B0BDE8F08100BF2A
:1019600038B502460C4640F6E843C2F20003187848
:1019700001280BD14FF02000114641F21565C0F24D
:101980004005A8474FF021002146A84738BD00BFB9
:101990002DE9F04F85B0064641F2A573C0F2400331
:1019A0009847002840F0688240F23400C2F20000FC
:1019B0004FF0F002026040F23801C2F200014FF431
:1019C000A0730B6040F6E840C2F200000278012AE2
:1019D00040F010814FF007004FF0330141F21564E1
:1019E000C0F24004A0474FF010004FF00001A047A4
:1019F0004FF000004FF00101A0474FF001004FF4FD
:101A00008071A0474FF002004FF4E061A0474FF013
:101A100004004FF00001A0474FF0080040F20721FA
:101A2000A0474FF009004FF00001A0474FF00A0017
:101A30004FF00001A0474FF00C004FF00001A0470D
:101A40004FF00D004FF00001A0474FF00F004FF096
:101A50000001A0474FF010004FF00001A0474FF0E9
:101A600011004FF00001A0474FF012004FF00001AD
:101A7000A0474FF013004FF00001A0474FF0C800FF
:101A800041F2FD65C0F24005A8474FF0100041F259
:101A90009021A0474FF0110040F22721A0474FF0BE
:101AA0003200A8474FF012004FF01B01A0474FF043
:101AB0003200A8474FF013004FF48851A0474FF071
:101AC00029004FF01901A0474FF02B004FF00D01F6
:101AD000A0474FF03200A8474FF030004FF0000110
:101AE000A0474FF031004FF40171A0474FF0320092
:101AF0004FF40071A0474FF035004FF00701A047A9
:101B00004FF0360041F20441A0474FF0370040F259
:101B10000571A0474FF0380040F20531A0474FF063
:101B2000390040F20771A0474FF03C0040F20171CC
:101B3000A0474FF03D004FF00E01A0474FF00300CB
:101B40004DF21001A0474FF060004FF42741A0472D
:101B50004FF061004FF00101A0474FF06A004FF0D5
:101B60000001A0474FF080004FF00001A0474FF068
:101B700081004FF00001A0474FF082004FF00001BC
:101B8000A0474FF083004FF00001A0474FF08400C2
:101B90004FF00001A0474FF085004FF00001A04733
:101BA0004FF090004FF01001A0474FF092004FF41B
:101BB000C061A0474FF095004FF48871A0474FF0E7
:101BC000000001463268736841F69104C0F2400497
:101BD000A047B06841F66D02C0F2400290474FF056
:101BE0000000014641F66113C0F2400398474FF0F0
:101BF000000046E1022A40F042814FF039048DF89E
:101C000000404FF02C058DF801504FF000058DF885
:101C100002504FF034078DF803704FF002098DF831
:101C200004904FF0CB0069464FF0050241F2356455
:101C3000C0F24004A0478DF800504FF0AA018DF883
:101C400001104FF0B0038DF802304FF0CF0069461D
:101C50004FF00302A0474FF030008DF800004FF026
:101C6000F70069464FF00102A0474FF025028DF8BA
:101C700000204FF0C00069464FF00102A0474FF02E
:101C800011088DF800804FF0C10069464FF0010245
:101C9000A0474FF05C078DF800704FF04C018DF8B5
:101CA00001104FF0C50069464A46A0474FF0940323
:101CB0008DF800304FF0C70069464FF00102A04791
:101CC0004FF085008DF800004FF001078DF801708E
:101CD0004FF078028DF802204FF0E80069464FF08F
:101CE0000302A0478DF800508DF801504FF0EA0034
:101CF00069464A46A0474FF048018DF800104FF062
:101D0000360069463A46A0474FF006038DF800308A
:101D10004FF03A0069463A46A0478DF800904FF0E0
:101D200082008DF801004FF027028DF802208DF817
:101D300003504FF0B60069464FF00402A0478DF8FB
:101D400000504FF0F20069463A46A0478DF8007007
:101D50004FF0260069463A46A0474FF00F078DF82E
:101D600000704FF031098DF801904FF02B018DF884
:101D700002104FF00C038DF803304FF00E0A8DF86F
:101D800004A04FF008008DF805004FF04E028DF8CA
:101D900006204FF0F1018DF807104FF037038DF852
:101DA00008304FF007008DF809004FF010028DF851
:101DB0000A204FF0030B8DF80BB08DF80CA04FF0FC
:101DC00009018DF80D108DF80E504FF0E0006946B6
:101DD0003A46A0478DF800508DF801A04FF014034B
:101DE0008DF802308DF803B08DF804804FF00700B5
:101DF0008DF805008DF806904FF0C1028DF8072090
:101E00004FF048018DF808104FF008038DF80930A5
:101E10008DF80A704FF00C008DF80B008DF80C90C7
:101E20004FF036028DF80D208DF80E704FF0E10066
:101E300069463A46A047284629463268736841F603
:101E40009107C0F24007B847B06841F66D01C0F293
:101E500040018847404669462A46A0474FF00A009D
:101E600041F2FD63C0F2400398474FF029006946F4
:101E70002A46A047284604E04FF0010001E04FF059
:101E8000010005B0BDE8F08F10B540F23403C2F296
:101E900000031A68824242D940F23803C2F20003BA
:101EA0001A688A423ED940F6E843C2F200031A7823
:101EB000012A18D180B289B241F66112C0F2400203
:101EC000904741F27540C0F24000804740F628112B
:101ED000C2F20001086841F2B143C0F240039847E2
:101EE0004FF0000010BD022A1FD14FF00002134630
:101EF00041F69104C0F24004A04741F27540C0F29F
:101F00004000804740F62811C2F20001086841F203
:101F1000B143C0F2400398474FF0000010BD4FF0AE
:101F2000010010BD4FF0010010BD4FF0000010BDCA
:101F30002DE9F04385B0039002910192009303A82C
:101F400002A901AA6B4641F24174C0F24004A047C5
:101F5000039A029B019901F10105009800F1010427
:101F600010461946AA1AE31A41F69104C0F2400439
:101F7000A047BDF80C00BDF8081041F66112C0F290
:101F80004002904741F27543C0F2400398470299DE
:101F90000098441A019A02F10108039BC3EB08015F
:101FA00004FB011848F68900C8F68800A0FB082445
:101FB000E4091DD040F62817C2F200074FF0F006E2
:101FC00041F2CD45C0F2400504F1FF3202F00109B3
:101FD00038463146A847013C34D109E038463146FD
:101FE000A84704F1FF3438463146A847013CF5D1F3
:101FF00048F68903C8F68803A3FB08214FEAD110ED
:10200000C0EB001240F62810C2F20000A8EB02114B
:1020100041F2CD44C0F24004A0474FF00000014619
:1020200040F23403C2F200031A6840F23804C2F2EC
:102030000004236841F69104C0F24004A04705B0B3
:10204000BDE8F083B9F1000FC8D038463146A84743
:10205000013CC3D1CCE700BF2DE9F04F89B0069019
:102060008B461378002B00F0C7800092824648F61A
:10207000E802C0F240020592A2F26B20079041F6FE
:1020800089618946C0F240090A2B04D10BF1100B7B
:10209000DDF818A0A9E003EB83034FEA8308A8F555
:1020A0002077059CE019A8F27F26A619079DA84471
:1020B00055460BF1010201920BF1020102910BF165
:1020C000030303930BF1040704974C46814627460C
:1020D000344616F8010C10F0800F02D028465946FD
:1020E000B84714F8012C02F04001CBB213B12846D6
:1020F0000199B84714F8010C00F02002D1B211B1D7
:1021000028460299B84714F8013C03F01000C2B207
:1021100012B128460399B84714F8011C01F00803CE
:10212000D8B210B128460499B84714F8012C02F02F
:102130000401CBB21BB128460BF10501B84714F8D6
:10214000010C00F00202D1B219B128460BF10601D0
:10215000B84714F8014C14F0010F03D028460BF1D6
:102160000701B8474C4699F8013013F0800F03D0AF
:1021700028460BF10801B847607800F04002D1B260
:1021800019B128460BF10901B847637803F0200024
:10219000C2B21AB128460BF10A01B847617801F0C2
:1021A0001003D8B218B128460BF10B01B84762787A
:1021B00002F00801CBB21BB128460BF10C01B84765
:1021C000607800F00402D1B219B128460BF10D017C
:1021D000B84709F1020906F1020605F10105464575
:1021E0007FF476AFB9460AF10C0A009810F8013F67
:1021F0000090002B7FF448AF09B0BDE8F08F00BF1E
:102200004FEA01114250704700EB01114A607047DC
:1022100000EB01118A60704700EB0111CA60704742
:1022200070B44FF080435D689C68D868D9695A6D76
:102230004FF080061E605D609C60D860D9615A6571
:102240004FF00500186070BC704700BF08B501F082
:102250003F03184311F4807F0CD011F4006F02D0BB
:1022600040F4845006E011F4005F14BF40F486503F
:1022700040F4825011F4804F18BF40F400604FF0DA
:1022800080431A615861184601F48052036C52B1C0
:1022900013F41F0F12D042F22122C0F240029047E5
:1022A0004FF0000008BD13F41B0F07D042F22121AC
:1022B000C0F2400188474FF0000008BD13F0010F45
:1022C000E4D011F4005F19D14FF0010008BD086C93
:1022D00003F1FF3300F03002202A19D10BE042F263
:1022E0002121C0F2400188474FF0000008BD00F0F6
:1022F0003002202AEBD14FF0010008BD4FF08040A2
:10230000006C44F24023C0F20F034FF08041EEE72F
:10231000086C013BEBD1E2E708B54FF0120042F642
:10232000E153C0F2400398474FF080404FF07202F3
:102330008260C2614FF0110141654FF4E063436078
:102340004FF00502026008BD00280CBF04200020E9
:10235000704700BF4FF00100704700BF33B14FF02E
:102360008043586D40F48070586505E04FF080431D
:10237000586D20F48070586581B14FEA41014FF4E7
:102380006063C0F22773B3FBF1F001FB103109B1B8
:1023900000F1010020B100F1FF3001E04FF000003A
:1023A0004FF08043596821F0FF0159605968C0B26D
:1023B00008435860042A04D0082A0CBFC022002217
:1023C00001E04FF080024FF08043DA60704700BFB9
:1023D000704700BF4FF080435A6822F46050586045
:1023E0004FF0000119614FF410625A611846036CF6
:1023F00013F0010FFBD0704710B504460A464FF0AA
:102400008043596821F460505860596821F40040B5
:1024100058604FF000009861214642F24D23C0F20F
:102420004003984710BD00BF4FF08043186A7047C3
:102430004FF080431A6A4FEA126101704FEA12416D
:1024400041704FEA12218170C2701A6A4FEA12611C
:1024500001714FEA124141714FEA12218171C2713B
:102460001A6A4FEA126101724FEA124141724FEA51
:1024700012218172C2721B6A4FEA136202734FEA21
:10248000134141734FEA13228273C373704700BF35
:1024900070B504460D469DF8101031B14FF08046DE
:1024A000706840F40041716005E04FF0804670684C
:1024B00020F4004171604FF08046706840F4C051D4
:1024C000716012F0030F04D0706840F40051716025
:1024D00005E04FF08046706820F40051716004F40C
:1024E0000046002E0CBF4FF4A0204FF4803014F4AF
:1024F000803F09D040F400104FEAC2564FEAD6514F
:102500004FF08046B16118E043EA02464FF0804147
:102510008E6114F4003F02D040F420100DE014F45A
:10252000802F02D040F4801007E014F4002F04D173
:1025300014F4801F18BF40F4002040F6F041C2F2AE
:1025400000014FF000060E6040F6EA41C2F20001C1
:102550000A8040F6EC42C2F20002138021462A466D
:1025600042F24D23C0F24003984770BD08B54FF0CA
:1025700080414FF00002CCF260020B6C134207D096
:1025800042F22120C0F2400080474FF0000008BD19
:1025900013F0020FF1D04FF080410A6B026040F659
:1025A000F040C2F20000036803F10403036040F648
:1025B000EC41C2F200010A8840F6EA40C2F2000093
:1025C000018801FB02F2934216D34FF080404FF096
:1025D0000002CCF26002036C134207D042F22121C8
:1025E000C0F2400188474FF0000008BD13F0006FB3
:1025F000F1D04FF0010008BD4FF0010008BD00BF51
:1026000040F6EA43C2F200031A8802FB01F110F01F
:10261000030F02D112F0030F06D04FF080435A6827
:1026200042F400525A6005E04FF080435A6822F4A9
:1026300000525A604FF08043C3F80001586810F40C
:10264000005F0CBF8A080A464FF08043C3F804219C
:102650004FF00002C3F814214FF00100C3F820012D
:1026600040F6F043C2F200031A68891819607047F7
:1026700008B54FF080414FF00002CCF260020B6CC5
:1026800013420DD040F202204FF08041C1F82001EA
:1026900042F22123C0F2400398474FF0000008BDEA
:1026A00013F4804FEBD040F6EC40C2F200000188FA
:1026B00040F6EA42C2F20002138803FB01F040F642
:1026C000F041C2F200010A68904216D84FF08040F3
:1026D0004FF00001CCF26001036C0B4207D042F2D4
:1026E0002122C0F2400290474FF0000008BD13F0D5
:1026F000006FF1D04FF0010008BD4FF0010008BDA0
:1027000040F6EA43C2F200031A8802FB01F110F01E
:10271000030F02D112F0030F06D04FF080435A6826
:1027200042F400525A6005E04FF080435A6822F4A8
:1027300000525A604FF08043C3F80801586810F403
:10274000005F0CBF8A080A464FF08043C3F80C2193
:102750004FF00002C3F81C214FF48070C3F8200131
:1027600040F6F043C2F200031A68891819604FF06E
:102770000100704708B54FF080414FF00002CCF2E5
:1027800060020B6C13420DD042F22120C0F24000D7
:10279000804740F202214FF08043C3F820114FF0F0
:1027A000000008BD13F4004FEBD040F6EC40C2F23D
:1027B0000000018840F6EA42C2F20002138803FBDF
:1027C00001F040F6F041C2F200010A68904216D8CA
:1027D0004FF080404FF00001CCF26001036C0B42DF
:1027E00007D042F22122C0F2400290474FF0000091
:1027F00008BD13F0200FF1D04FF0010008BD4FF0DD
:10280000010008BD0AB1416670470166704700BF0C
:1028100010B44264B1F1C05F30D008D8B1F1006F9C
:1028200014D0B1F1805F1ED000293BD039E0B1F166
:10283000205F37D003D8B1F1005F32D129E0B1F188
:10284000405F2FD0B1F1605F2BD12BE0016F046F9F
:102850006FEA0203214019400167416F446F214034
:102860000B4043671DE0036F42EA03010167436FBA
:10287000416F0B4023EA0203436712E0036F016FCD
:102880000B4023EA02030367436F42EA03014167F7
:1028900007E0036F42EA03010167436F42EA030165
:1028A0004167426010BC704741647047F8B5044608
:1028B0000D4616461F4642F6A903C0F2400398474C
:1028C00020462946069A42F60503C0F2400398477F
:1028D0000FB1256500E065650EB1256300E0656315
:1028E00025612560F8BD00BF70B504460D4616464B
:1028F00042F6A903C0F2400398472046294606F055
:10290000010242F60503C0F24003984716F00A0F91
:1029100014BF2562656216F0020F02D0C4F8805021
:1029200004E016F0080F18BFC4F8845065612560F4
:1029300070BD00BFC06C7047806C7047F0B583B04D
:102940000D464FEA501606F5001101F207724FEAE4
:10295000422605F0F044B4F1005F64D00AD8B4F127
:10296000805F2CD0B4F1C05F43D0B4F1006F40F071
:102970009D800AE0B4F1405F7ED0B4F1605F7BD00F
:10298000B4F1205F40F0928067E000F01F034FF049
:10299000010404FA03F730464FF000613A4642F66C
:1029A0001103C0F2400398473046394605EA040255
:1029B00042F60503C0F240039847204678E000F055
:1029C0001F074FF0010404FA07F730464FF080511B
:1029D0003A4642F61103C0F2400398473046394662
:1029E00005EA040242F60503C0F240039847204678
:1029F0005EE000F01F004FF0010404FA00F73046DB
:102A00004FF0C0513A4642F61103C0F240039847D6
:102A10003046394605EA040242F60503C0F2400397
:102A20009847204644E000F01F024FF0010404FAEA
:102A300002F730464FF000513A4642F61103C0F219
:102A4000400398473046394605EA040242F605033A
:102A5000C0F24003984720462AE000F01F014FF0E3
:102A60000104304604FA01F12A4642F6E903C0F2B5
:102A70004003984720461BE000F01F034FF001047D
:102A800005F0605205EA04000090304604FA03F1B4
:102A9000B2F1605F14BF00220122C5F3800342F649
:102AA000AD05C0F24005A847204601E04FF0000008
:102AB00003B0F0BDF0B583B007460E46154602F0F0
:102AC000F044B4F1005F50D009D8B4F1805F24D055
:102AD000B4F1C05F35D0B4F1006F78D109E0B4F142
:102AE000405F5ED0B4F1605F5BD0B4F1205F6ED127
:102AF0004FE04FF00061324642F61103C0F240034E
:102B000098473846314605F0010242F60503C0F207
:102B1000400398474FF001005BE04FF08051324690
:102B200042F61103C0F2400398473846314605F09B
:102B3000010242F60503C0F2400398474FF001003E
:102B400047E04FF0C051324642F61103C0F2400355
:102B500098473846314605F0010242F60503C0F2B7
:102B6000400398474FF0010033E04FF000513246E8
:102B700042F61103C0F2400398473846314605F04B
:102B8000010242F60503C0F2400398474FF00100EE
:102B90001FE042F6E903C0F2400398474FF00100FE
:102BA00017E005F0605205F001000090384631460C
:102BB000B2F1605F14BF00220122C5F3800342F628
:102BC000AD04C0F24004A0474FF0010001E04FF017
:102BD000000003B0F0BD00BF2DE9F04180460E4675
:102BE00042F63513C0F2400398470546404642F688
:102BF0003911C0F240018847054014D0124C2746D5
:102C000054F80C0CB0420AD154F8081C294206D0E2
:102C100022683046904754F8083C25EA030504F141
:102C20001004002DEBD140F6D451C2F20001086827
:102C300038B140F6F442C2F2000213680BB14046CC
:102C40009847BDE8F08100BF040D002008B54FF49F
:102C50006060C4F20E004FF00B0142F6D933C0F2AF
:102C60004003984708BD00BF08B54FF48050C4F238
:102C70000E004FF00C0142F6D933C0F240039847E2
:102C800008BD00BF08B54FF49050C4F20E004FF0DD
:102C90000D0142F6D933C0F24003984708BD00BF8A
:102CA0004FF48063C4F20E031A6B22F070010843E4
:102CB0001863986E10F0080F07D010E000F1FF3392
:102CC000906E10F0080F38D009E04FF400604FF418
:102CD0008062C4F20E02916E11F0080FEED04FF434
:102CE0008061C4F20E010A6B22F0030343F002007C
:102CF0000863896E11F0080F09D04FF0000070478B
:102D000003F1FF33916E11F0080F13D009E04FF477
:102D100000634FF48062C4F20E02906E10F0080F50
:102D2000EED04FF0000070474FF0010070474FF0B9
:102D300001007047013BF0D1F9E7581ECBD1F3E712
:102D400088B14FF48061C4F20E01086A4FF6FC723C
:102D5000CFF6C86202404FF00203C0F2371342EAD6
:102D60000300086270474FF48063C4F20E031A6ACE
:102D700022F45C1020F0030242F45C1040F00102E7
:102D80004FEA016142EA114018624FF48062C4F2D6
:102D90000E02936E13F0010FFBD04FF48061C4F26A
:102DA0000E01086A40F09B7242F480330B62704758
:102DB0004FF48063C4F20E03986E00F480307047C5
:102DC0004FF48063C4F20E034FF000529A627047D2
:102DD0004FF48063C4F20E03986E00F00200704757
:102DE000222835D81F2817D84FF48061C4F20E016D
:102DF0008A694FF0010303FA00F31A4093422AD084
:102E00004FF0010101FA00F04FF48062C4F20E02AB
:102E100010614FF0000070474FF48063C4F20E035E
:102E2000D3F80821A0F120004FF0010101FA00F1D0
:102E30000A40914212D04FF0010303FA00F04FF420
:102E40008062C4F20E02C2F800014FF00000704729
:102E50004FF0010070474FF0000070474FF0000046
:102E6000704700BF21B1426842F0010343607047E0
:102E7000436823F001014160704700BF30B48468AB
:102E80008568AC4203D084688568A542FBD171B1E6
:102E900004F47C104FEA105505EB8505C0F30340A0
:102EA00000EB450014F4800F18BF0C30086052B1DD
:102EB00004F4FE414FEA113000EB8000C1F303211E
:102EC00001EB4000106043B1C4F3021202EB820137
:102ED00004F00F0404EB4100186030BC704700BFE1
:102EE000F0B4049EC468C568AC4203D0C468C56829
:102EF000A542FBD1B1B104F47F404FEA103505EB98
:102F00008507C0F3032000EB4705C4F3021707EB66
:102F1000870004F00F0707EB40004FF0640707FB42
:102F2000005008605AB104F4F8114FEA11504FEA0A
:102F300080052818C1F3034101EB4000106053B134
:102F400004F07C524FEA127101EB8100C2F303627C
:102F500002EB4001196016B1C4F342543460F0BC76
:102F6000704700BF10B44FF0AC0303600A684C68B0
:102F7000B2FBF4F34FEA131303F1FF344FF6FE7282
:102F800094420CD803628968416040F20223C0F881
:102F900020314FF0500202604FF0000001E04FF08E
:102FA000010010BC704700BF436913F0020F03D04B
:102FB000C1614FF0000070474FF00100704700BF43
:102FC000436913F0010F04D0806908704FF00000CE
:102FD00070474FF001007047436913F0020F07D0AC
:102FE0004FEAC1514FEAD152C2614FF00000704721
:102FF0004FF00100704700BF436913F0010F08D084
:1030000080694FEAC0524FEAD2530B604FF0000084
:1030100070474FF001007047FEE700BF38B5504BD6
:10302000504A9A4229D9504D4D4BAB4248D203F1F8
:1030300004004E4A111A21F003044FF0000340F23D
:103040000002C2F2000249F66001C0F2400104F140
:103050000400C4F380045D589D5003F104038342CF
:103060006DD12DE05D589D5003F104035C589C50D8
:1030700003F104038342F5D122E039483949814202
:103080001ED240F60015C2F2000540F20004C2F262
:103090000004374B2A1B13D0A2F10400C0F38001B7
:1030A0009C5845F8044D043A52D109E0995845F826
:1030B000041DA2F104029C5845F8044D043AF5D1D0
:1030C00000BF2C4B2C4A9A421ED2A2F104052B4978
:1030D000481B20F0030440F60013C2F20003E2187C
:1030E0004FF00001501BA0F10400C0F3800445F82C
:1030F000041F95421CD107E005F10403696005F146
:10310000080559609542F7D14FF46D45CEF20005A0
:1031100040F20002C0F24002AA6046F28D11C0F2F5
:103120004001884745F61530C0F240008047FEE771
:10313000002CE1D045F8041F9542DDD1E4E7002CD6
:1031400090D05C589C5003F1040383428AD1B7E7C6
:103150000029ABD0985845F8040D043AA6D1AFE742
:1031600000000020609840000009002003090020B2
:103170005C984000EC0D002000090020E70D0020C5
:103180004FF48063C4F20E03186B00F00303032BAB
:1031900000F2A980DFE803F002144F4F41F2104023
:1031A000C4F20E00416911F0800F40F23C03C2F2FC
:1031B000000314BF4FF400424FF4FA421A6092E049
:1031C0004FF48063C4F20E03186A10F0807F09D0B8
:1031D0004FF4D853C0F2B70340F23C02C2F20002EF
:1031E000136080E04FF41061C0F23D0140F23C02F8
:1031F000C2F2000211604FF48063C4F20E03186A39
:1032000000F07001102902D020296CD109E04FF4A0
:103210009050C0F27A0040F23C01C2F20001086016
:1032200061E04FF4D853C0F2B70340F23C02C2F25F
:103230000002136057E04FF48062C4F20E02136A7A
:1032400013F0807F09D04FF4D853C0F2B70340F297
:103250003C02C2F20002136027E04FF41063C0F298
:103260003D0340F23C02C2F2000213604FF480635F
:10327000C4F20E031A6A02F07003102B02D0202B46
:1032800013D109E04FF49053C0F27A0340F23C02AC
:10329000C2F20002136008E04FF4D853C0F2B70343
:1032A00040F23C02C2F2000213604FF48063C4F2A9
:1032B0000E031A6B02F00303022B4FF48062C4F278
:1032C0000E0207BF906A916AD06AD16A40F23C034D
:1032D000C2F20003C0F30A401A6800FB0220C9B220
:1032E000B0FBF1F21A604FF48062C4F20E02106B70
:1032F00000F0700170290ED140F23C03C2F20003CD
:1033000018684AF6AB22CAF6AA22A2FB00014FEACD
:103310005100186070474FF48063C4F20E031A6BBB
:1033200040F23C00C2F20000C2F30211036823FA2B
:1033300001F30360704700BF42F6FF43C0F2311350
:1033400098420CD84FF42061C4F20E014FF0806017
:1033500008604FF44063C4F20E031860704745F6EE
:10336000FF11C0F2622188420ED84FF42060C4F2EF
:103370000E004FF48073C0F2004303604FF44062CC
:10338000C4F20E021360704748F2FF62C0F293323B
:1033900090420ED84FF42062C4F20E024FF4007334
:1033A000C0F2004313604FF44061C4F20E010B60A1
:1033B00070474BF2FF33C0F2C44398420ED84FF42B
:1033C0002062C4F20E024FF44071C0F2004111605D
:1033D0004FF44060C4F20E00016070474EF2FF01EE
:1033E000C0F2F55188420CD84FF42061C4F20E01AE
:1033F0004FF0042008604FF44063C4F20E031860DD
:1034000070474FF42060C4F20E004FF4A063C0F286
:10341000004303604FF44062C4F20E021360704731
:1034200040F66853C2F20003196841B940F6685388
:10343000C2F2000343F6F052C2F200021A6040F6F4
:103440006851C2F200010B68181847F6FC72C2F20C
:103450000202824206DB014640F66850C2F20000DA
:10346000016001E04FF0FF33184670474FF0FF3026
:10347000704700BF4FF400534B604FF0000070479F
:103480004FF00100704700BF4FF00000704700BFD1
:1034900010B504464FF4A350C4F20E004FF00001E3
:1034A00042F66563C0F240039847012C1BD82046C2
:1034B00041F2F101C0F240018847032807D12046BC
:1034C00041F2F102C0F24002904703280ED080B9C9
:1034D000204641F22D13C0F240039847002814BF44
:1034E0000420002010BD4FF0010010BD4FF001007E
:1034F00010BD4FF0010010BD08B541F2F103C0F25C
:103500004003984720B102280CBF0320012008BDCA
:103510004FF0000008BD00BF2DE9F04F85B0044614
:103520000E4617461D4641F22112C0F24002904756
:103530008246002835D0204603A941F20913C0F283
:1035400040039847D0460AFB0570039901FB0AA285
:10355000904229D8AB4655B34FEA4A2A41F2451961
:10356000C0F2400905F1FF3303F00100019020464D
:1035700039463246C847002821D01BE0204639464C
:103580003246C847B0B905F10105474456442046C4
:1035900039463246C847002829D00BE04FF00000DA
:1035A0000AE04FF0010007E04FF0040004E04FF0A4
:1035B000000001E04FF0010005B0BDE8F08F4FF0D2
:1035C000000505F10105474456445D45E6D20199E1
:1035D0000029D3D0204639463246C8470028E9D1D1
:1035E00005F10105474456445D45C7D3D6E705F1CB
:1035F0000105474456445D45C0D3CFE72DE9F04F60
:1036000085B004460E4617461D4641F22112C0F20F
:10361000400290478246002835D0204603A941F257
:103620000913C0F240039847D0460AFB057003997E
:1036300001FB0AA2904229D8AB4655B34FEA4A2A69
:1036400041F26119C0F2400905F1FF3303F00100B6
:103650000190204639463246C847002821D01BE059
:10366000204639463246C847B0B905F101054744FE
:103670005644204639463246C847002829D00BE038
:103680004FF000000AE04FF0010007E04FF00400A7
:1036900004E04FF0000001E04FF0010005B0BDE88C
:1036A000F08F4FF0000505F10105474456445D4594
:1036B000E6D201990029D3D0204639463246C84780
:1036C0000028E9D105F10105474456445D45C7D3BB
:1036D000D6E705F10105474456445D45C0D3CFE721
:1036E00010B582B01446032932D8DFE801F027086C
:1036F00015024FF0010313604FF000002DE001A907
:1037000041F20912C0F240029047019800F1010015
:1037100020604FF0000020E041F22111C0F2400192
:10372000884700F1FF32D3B2012B03D9042801D01E
:10373000082810D14FF0000020700EE041F2F10196
:10374000C0F240018847002814BF0320002004E095
:103750004FF0040001E04FF0010002B010BD00BFC7
:1037600030B58BB04FF4A354C4F20E04204609A91F
:1037700008AA07AB42F67D65C0F24005A84703AB37
:103780000093204606A905AA04AB42F6E164C0F204
:103790004004A04704984FEA0042059942EA41508C
:1037A000079B1843099A40EAC221089841EA40124F
:1037B000069BA3F2BC7142EA41600BB030BD00BF72
:1037C00010B4E2B182186FEA0004131903F0010487
:1037D00001F1FF3111F8013F00F8013B904210D197
:1037E0000DE001F101044978034603F8011B04F1DF
:1037F00001016478447003F101009042F1D110BCE2
:103800007047002CEDD011F8013F00F8013B9042C9
:10381000E7D1F4E792B182186FEA0003D31803F0FE
:10382000010300F8011B904209D17047034603F8D9
:10383000011B417003F101009042F7D17047002B4A
:10384000F4D000F8011B9042F0D17047037833B1F7
:103850008B4204D010F8013F0BB18B42FAD11846CD
:10386000704700BFA1F102018369A3F102039942ED
:1038700004D28278806A02FB010070474FF000009A
:10388000704700BF03784FEAC31242EA53014378FE
:10389000CA18D1B24FEAC11343EA5101827852FAF1
:1038A00081F3D9B24FEAC11242EA5103C17851FA09
:1038B00083F2D3B24FEAC31141EA5303027952FAB9
:1038C00083F1CBB24FEAC31242EA5301437953FA70
:1038D00081F2D1B24FEAC11343EA5101827952FA1F
:1038E00081F3D9B24FEAC11242EA5103C17951FAC8
:1038F00083F2D3B24FEAC31141EA5303027A52FA78
:1039000083F1CBB24FEAC31242EA5301437A53FA2E
:1039100081F2D1B24FEAC11343EA5101807A50FAE1
:1039200081F2D0B2704700BF08B5034688B1027873
:1039300092B1C088884212D1587843F2F941C0F25E
:103940004001884700F00103002B14BF0320002032
:1039500008BD4FF0090008BD4FF0090008BD4FF049
:10396000090008BD38B504460A46407804F1300124
:103970004FF0010343F21955C0F24005A847002853
:103980003ED194F82F2294F82E3243EA022001B25D
:103990004AF65522CFF6FF72914234D194F869006D
:1039A00094F868304FEA034141EA006294F86600F7
:1039B00042EA000394F8671043EA012222F07F40B4
:1039C00044F24613C0F2540398421FD094F8851075
:1039D00094F884204FEA024040EA016194F8823072
:1039E00041EA030294F8830042EA002121F07F4279
:1039F00044F24613C0F25403D01A18BF012038BD58
:103A00004FF0030038BD4FF0020038BD4FF000000A
:103A100038BD00BF2DE9F041164603681C78A4F1BB
:103A20003004092C09D85A783A2A09D103F1020343
:103A30000360072C00F29F8104E04FF0000401E0D6
:103A40004FF0000440F67050C2F2000050F82450CD
:103A50000D60002D00F093812978A1B1687843F2C0
:103A6000F943C0F24003984710F0010F0BD1002E2C
:103A700000F0898100F00401C8B2002814BF0A20B8
:103A80000020BDE8F0814FF000022A70E0B26870BB
:103A900043F29141C0F24001884710F0010F40F01D
:103AA00076812EB100F00400C3B2002B40F0738188
:103AB00028464FF0000143F66512C0F240029047DD
:103AC00001281CD195F8F211002900F0688195F8C1
:103AD000F94195F8F8014FEA004343EA046295F88A
:103AE000F61142EA010095F8F74140EA042428461D
:103AF000214643F66513C0F24003984701E04FF0BA
:103B00000004032800F04F81002840F0508195F810
:103B10003C2095F83B1041EA022003B2B3F5007F48
:103B200040F0498195F8472095F8461051EA022166
:103B30000FD195F8570095F856304FEA034242EA04
:103B4000006195F8540041EA000395F8552043EAD6
:103B50000221E96195F84020EA7002F1FF30C3B21A
:103B6000012B00F22C8195F83D30AB70002B00F05A
:103B70002A8103F1FF30184240F0298195F8426014
:103B800095F8410040EA0626B0B2288116F00F0FE2
:103B900040F0218195F8447095F8436056EA072675
:103BA0000ED195F8537095F852604FEA064646EAF2
:103BB000076795F850603E4395F8517046EA07262E
:103BC00095F83FC095F83E7057EA0C2700F0078142
:103BD00002FB01FC07EB101262449642C0F0038125
:103BE000B61AB6FBF3F3002B00F0018140F6F57630
:103BF000B3428CBF022601264FF6F578434500F20A
:103C0000068103F10203AB611219AA62E7192F6260
:103C1000032E15D1002840F0EE8095F85F0095F84E
:103C20005E204FEA024242EA006095F85C200243BF
:103C300095F85D0042EA00226A624FEA830011E0D3
:103C4000002800F0DC8067446F62022E02D14FEA48
:103C5000430007E04FF0030000FB03F203F0010311
:103C600003EB520000F2FF13B1EB532FC0F0CB80F7
:103C70004FF0FF3129614FF00000E860032E6CD156
:103C8000687195F8612095F8603043EA0221621866
:103C90006A61687805F130014FF00103614CA0477B
:103CA00000285AD195F82F0295F82E2242EA0023D7
:103CB00019B24AF65520CFF6FF7081424DD195F8E2
:103CC000332095F832304FEA034141EA026095F81B
:103CD000302040EA020395F8311043EA012045F212
:103CE0005222C4F26112904237D195F8171295F81A
:103CF00016324FEA034040EA016295F8141242EA94
:103D0000010395F8150243EA002247F27221C6F238
:103D100041118A4221D195F81F0295F81E324FEACF
:103D2000034242EA006195F81C0241EA000395F85B
:103D30001D2243EA0221E96095F81B0295F81A3228
:103D40004FEA034242EA006195F8180241EA000393
:103D500095F8192243EA022129612E70324803881E
:103D600003F101039AB20280EA804FF00000E8629A
:103D70002871BDE8F0814FF00B00BDE8F0814FF0F5
:103D80000C00BDE8F0814FF00000BDE8F0814FF07D
:103D90000300BDE8F0814FF00A00BDE8F0814FF06C
:103DA0000D00BDE8F0814FF00100BDE8F0814FF05B
:103DB0000D00BDE8F0814FF00D00BDE8F0814FF03F
:103DC0000D00BDE8F0814FF00D00BDE8F0814FF02F
:103DD0000D00BDE8F0814FF00D00BDE8F0814FF01F
:103DE0000D00BDE8F0814FF00D00BDE8F0814FF00F
:103DF0000D00BDE8F0814FF00D00BDE8F0814FF0FF
:103E00000D00BDE8F0814FF00D00BDE8F08103F139
:103E10000203AB611619AE62E7192F624FF0030679
:103E2000F8E600BF193540006C0D00202DE9F84F71
:103E300004460D46C66A8E425BD00379002B48D0FB
:103E400000F130074078394632464FF0010343F223
:103E5000FD5CC0F2400CE04700284ED14FF000005E
:103E60002071E269216A53189E4232D294F803A06D
:103E7000BAF1010F2DD94FF0010943F2FD58C0F2FC
:103E800040080AEA090BB6186078394632464B46B4
:103E9000C0470AF1FF3A5FFA8AFACA4539D118E0F9
:103EA000E06936186078394632464B46C0470AF119
:103EB000FF3C0CF0FF0AE269B618607839463246DA
:103EC0004B46C0470AF1FF315FFA81FABAF1010FA0
:103ED000E6D1B5B1607804F130012A464FF0010314
:103EE00043F21956C0F24006B04770B9E562BDE82A
:103EF000F88F4FF00000BDE8F88F4FF00100BDE8EB
:103F0000F88F4FF00000BDE8F88F4FF00100BDE8DA
:103F1000F88F4FFA8BF2002AC2D0E16976186078E8
:103F2000394632464B46C0470AF1FF335FFA83FAFF
:103F3000BAF1010FB4D1CCE7F8B505460C4601291A
:103F400078D98369994278D20078022838D003283A
:103F50004ED0012874D101EB5106296A284601EBA5
:103F6000562143F62D62C0F24002904700286AD1E4
:103F70004FEAC6574FEAD753E81890F8307006F169
:103F80000106296A284601EB562143F62D62C0F24C
:103F900040029047002859D14FEAC6564FEAD656FC
:103FA000AD1995F8303047EA032014F0010F02D024
:103FB0004FEA1010F8BD4FEA00514FEA1150F8BD1A
:103FC0002B6A284603EB112143F62D62C0F2400212
:103FD000904700283DD14FEA04604FEAD054291998
:103FE00091F830302C1994F8312043EA0220F8BDC2
:103FF0002A6A284602EBD11143F62D63C0F2400332
:104000009847002828D14FEA44644FEAD45101F17F
:1040100030002B189C78DA784FEA026040EA0444BA
:104020005B7844EA03226C1894F830100A4322F0BB
:104030007040F8BD4FF00100F8BD4FF00100F8BD31
:104040004FF0FF30F8BD4FF0FF30F8BD4FF0FF30BC
:10405000F8BD4FF0FF30F8BD4FF0FF30F8BD00BFA6
:10406000F8B504460D46E1808168012943D0036814
:104070009A69914242D279B91878032801D1596AD4
:1040800051B94FF00000E0601A89AA4239D95B6A41
:1040900003EB1511216122E09E784FEA0616B54226
:1040A00013D343F63977C0F240072068B84701467A
:1040B000B0F1FF3F28D0012829D923689A6990429E
:1040C00028D2AD1BADB2AE42EFD9E160206843F615
:1040D0006503C0F24003984700EB1511216105F01C
:1040E0000F004FEA401202F1300223689918616113
:1040F0004FF00000F8BD4FF00200F8BD4FF0020095
:10410000F8BD4FF00200F8BD4FF00100F8BD4FF0D0
:104110000200F8BD4FF00200F8BD00BFF8B505463B
:104120000C461646012940F297808369994280F037
:104130009680007802284CD0032862D0012840F0F5
:10414000858001EB5107296A284601EB572143F688
:104150002D62C0F2400290470346002878D14FEA12
:10416000C7534FEAD35014F0010409D02A1892F82B
:10417000303003F00F02F1B242EA0113D9B200E08D
:10418000F1B2281880F8301007F101074FF0010252
:104190002A71296A284601EB572143F62D63C0F2A4
:1041A000400398470346002852D14FEAC7574FEAC9
:1041B000D75014B1C6F3071607E02A1892F830104A
:1041C00021F00F07C6F303263E432F1887F830600F
:1041D0003EE02B6A284603EB112143F62D62C0F224
:1041E00040029047034698BB4FEA04644FEAD4511B
:1041F000681880F830600446C6F3072680F83160FE
:1042000026E02B6A284603EBD11143F62D62C0F25B
:10421000400290470346D8B94FEA44644FEAD4506D
:1042200000F130016A18D4784FEA04612C1801F0CB
:104230007040064384F83060C6F3072151704FEA9E
:10424000164090704FEA1666D67001E04FF00203F8
:104250004FF001022A7104E04FF0020301E04FF039
:1042600002031846F8BD00BF2DE9F843054689460C
:1042700031B9C6688EB18069864228BF01260EE03A
:1042800043F63973C0F240039847014601284ED9DE
:10429000AA69904255D34E4601E04FF001063446DC
:1042A0004FF0020843F63977C0F2400704F10104E9
:1042B000A9698C4202D3012E3CD9444628462146A6
:1042C000B847014638B1B0F1FF3F3AD0012838D0A5
:1042D000B442EBD131E02646284621466FF07042C9
:1042E00044F21D13C0F2400398470246C8B9B9F121
:1042F000000F09D028464946224644F21D13C0F259
:1043000040039847024660B9EE602869B0F1FF3F6C
:1043100016D000F1FF332B614FF001026A71214684
:104320000FE0012A14BF01214FF0FF3109E04FF0E7
:10433000010106E04FF0000103E04FF0000100E052
:1043400021460846BDE8F8832DE9F04704460E46AD
:1043500001292CD9836999422CD243F63977C0F2CE
:1043600040074FF0000944F21D18C0F240084FF01A
:10437000010A20463146B8470546F0B101281FD052
:10438000B0F1FF3F1FD0204631464A46C0470246A3
:10439000D8B92069B0F1FF3F04D000F101002061DD
:1043A00084F805A02E46A169A942E2D80DE04FF09D
:1043B00002020AE04FF0020207E04FF0000204E0C0
:1043C0004FF0020201E04FF001021046BDE8F08715
:1043D0002DE9F04704460E46C58805F10105ADB24A
:1043E000002D7CD00369002B7DD015F00F076AD11A
:1043F00003F101030361C16821B903681A89AA4264
:1044000075D960E00068827802F1FF3313EA151372
:1044100059D143F63972C0F24002904780460128D4
:1044200069D9B0F1FF3F6AD020688169884540D3DF
:10443000002E68D0E168404B98478046002866D03F
:10444000012868D0B0F1FF3F69D020684FF000012B
:104450003A4A9047002866D1206800F130004FF0BA
:1044600000014FF40072364EB04726683046414690
:10447000344B9847F0624FF000064FF0010ADFF826
:10448000BC900FE080F804A020684FF00001C847FE
:1044900000284CD12068C16A01F10101C16206F116
:1044A0000106F6B220688178B142EBD8C26A931B4C
:1044B000C362C4F80C802068414643F66502C0F22E
:1044C000400290472061E5804FEA471707F1300727
:1044D0002068C11961614FF00000BDE8F0874FF01E
:1044E0000400BDE8F0874FF00400BDE8F0874FF00E
:1044F0000400BDE8F0874FF00200BDE8F0874FF000
:104500000100BDE8F0874FF00400BDE8F0874FF0F0
:104510000700BDE8F0874FF00200BDE8F0874FF0DC
:104520000100BDE8F0874FF00100BDE8F0874FF0D3
:104530000100BDE8F08700BF694240002D3E400009
:10454000153840006538400070B504464FF0000152
:1045500043F62D63C0F2400398470146002868D116
:104560002078032859D16179002956D04FF00005F1
:10457000E56204F13006304629464FF4007243F6F6
:104580001503C0F2400398474FF0550284F82E22DD
:104590004FF0AA0084F82F024FF0520184F8301037
:1045A00084F831104FF0610384F832304FF041024B
:1045B00084F833204FF0720084F8140284F8150256
:1045C00084F8162284F81732216984F81812C1F38E
:1045D000072384F819324FEA114284F81A224FEA6D
:1045E000116084F81B02E16884F81C12C1F30723F0
:1045F00084F81D324FEA114284F81E224FEA1160FE
:1046000084F81F026078314662694FF0010343F27B
:10461000FD56C0F24006B047657160784FF000016A
:104620000A4643F2E163C0F240039847011C18BFF9
:104630000121084670BD00BF2DE9F04F85B004464A
:104640004FF0000144F26103C0F24003984707466F
:10465000002840F03B824FF0FF0BD84643F62D690F
:10466000C0F24009DA4645F66D10C0F240000190F4
:1046700043F68501C0F24001009120682169C847D6
:104680000746002840F0228265692E78002E00F04F
:104690000F82EB7A03F03F02E52E00F0E18103F098
:1046A0000800C1B219B10F2A40F0DC8102E00F2AE4
:1046B00040F09881E769002F00F0ED8106F040019D
:1046C000CBB233B195F80DB006F0BF06E288228474
:1046D00004E0B04518BFD04640F0DD81687B029011
:1046E000584540F0C181297821F0400303F1FF30A3
:1046F00000EB400200EB82010391A8786B7843EA5B
:104700000020019A904780460399FE2900F2DA8141
:1047100001F1010B37F81100019B9847804540F0EB
:10472000D1812879EA7842EA0020B8F1000F04D15B
:104730004FF6FF71884211D0C4E1019B9847804633
:10474000BBF1FE0F00F2BE8137F81B00039A02F1A5
:10475000020B01998847804540F0B481A8796B79B4
:1047600043EA0020B8F1000F04D14FF6FF729042E7
:1047700010D0A7E1019988478046BBF1FE0F00F2F7
:10478000A18137F81B000BF1010B019B9847804575
:1047900040F09881287AEA7942EA0020B8F1000FC7
:1047A00004D14FF6FF71884210D08BE1019B9847EE
:1047B0008046BBF1FE0F00F2858137F81B000BF13C
:1047C000010B019A9047804540F07C81A87A697A74
:1047D00041EA0020B8F1000F04D14FF6FF73984270
:1047E00010D06FE1019A90478046BBF1FE0F00F2B6
:1047F000698137F81B000BF1010B0199884780454F
:1048000040F06081E87BAB7B43EA0020B8F1000F09
:1048100004D14FF6FF72904210D053E101998847BE
:104820008046BBF1FE0F00F24D8137F81B000BF103
:10483000010B019B9847804540F04481687C2A7CAD
:1048400042EA0020B8F1000F04D14FF6FF71884210
:1048500010D037E1019B98478046BBF1FE0F00F274
:10486000318137F81B000BF1010B019A904780450D
:1048700040F02881E87CA97C41EA0020B8F1000FD3
:1048800004D14FF6FF73984210D01BE1019A904774
:104890008046BBF1FE0F00F2158137F81B000BF1CB
:1048A000010B01998847804540F00C81687D2B7D84
:1048B00043EA0020B8F1000F04D14FF6FF72904296
:1048C00010D0FFE0019988478046BBF1FE0F00F24F
:1048D000F98037F81B000BF1010B019B98478045CD
:1048E00040F0F080E87DAA7D42EA0020B8F1000F98
:1048F00004D14FF6FF71884210D0E3E0019B984746
:104900008046BBF1FE0F00F2DD8037F81B000BF193
:10491000010B019A9047804540F0D480687E297E43
:1049200041EA0020B8F1000F04D14FF6FF7398421E
:1049300010D0C7E0019A90478046BBF1FE0F00F20D
:10494000C18037F81B000BF1010B019988478045A6
:1049500040F0B880687F2B7F43EA0020B8F1000F59
:1049600004D14FF6FF72904210D0ABE00199884716
:104970008046BBF1FE0F00F2A58037F81B000BF15B
:10498000010B019B9847804540F09C80E87FAA7FFF
:1049900042EA0020B8F1000F10D001998847804604
:1049A000BBF1FE0F00F28E800BF10103039337F889
:1049B0001B00019A9047804505D083E04FF6FF77B2
:1049C000B84278D07EE0287800F04001CBB2002BCE
:1049D00071D0B8F1000F6ED0039A37F81270002F23
:1049E00069D06FE0B8F1000F04D12846009B9847CA
:1049F00058456BD04FF6FF722284A069C17A11F03E
:104A0000010F33D12B780278934231D16978437802
:104A100099422FD1A978827891422DD1EB78C17833
:104A20008B422BD12B790279934229D16979437931
:104A3000994227D1A9798279914225D1EB79C1791F
:104A40008B4223D12B7A027A934221D1697A437A1D
:104A500099421FD1AA7A807A824237D0D0461AE092
:104A6000D04618E0D04616E0D04614E0D04612E01A
:104A7000D04610E0D0460EE0D0460CE0D0460AE02A
:104A8000D04608E0D04606E0D04604E0D04602E03A
:104A9000D04600E0D04620464FF0000144F2D1332A
:104AA000C0F240039847074600283FF4E6AD0DE00A
:104AB0004FF004070AE006F1FF365FFA86F8DDF8EA
:104AC00008B0E8E7DDF808B0D046E4E7384605B0BE
:104AD000BDE8F08F2DE9F04F87B000908B460B7842
:104AE0002F2B01D05C2B01D10BF1010B4FF00000FB
:104AF000009988609BF800201F2A0DD808464FF0C7
:104B0000000144F26103C0F24003984702464FF0AF
:104B1000000000994861B7E145F6F504C0F2400491
:104B2000059449F2E806C0F24006039643F64D07A5
:104B3000C0F2400702975E461BF8013B2F2BFAD0CC
:104B40005C2BF8D00098C169019130781F2840F2A1
:104B500073812F2800F05A815C2800F05C810F4699
:104B6000A7F1020735464FF00104A3460496DDF88D
:104B700014A012E02F2B00F053815C2B00F0528127
:104B8000B1F5807F00F0758189460C465946D047C3
:104B90000646002840F0AA816BE15946D0470646F8
:104BA000002800F066817F2806D803983146029AD3
:104BB0009047002840F05D8107F102087E8015F8DB
:104BC000013F184604F101011F2BD3D8049E39E19F
:104BD000002C00F04E8104F1FF3000F00101019B38
:104BE00003EB440232F8020D202840F0658166E1B3
:104BF00032F8023D202B01D02E2B08D104F1FF30DA
:104C0000041E32F8021D202940F069816AE126461F
:104C1000002C00F02E81019A02EB44084FF00005B1
:104C200022F81450009B98694FF020014FF00B02BE
:104C300043F61503C0F240039847019AA2F102021D
:104C400001E005F1010532F8020F2028F9D02E28E5
:104C5000F7D0002D00F0FB8047F00307F7E004F1E8
:104C6000FF30044650B94FF008094FF00008C24623
:104C700049F2F403C0F24003049307E0A8F10206EE
:104C800036F8021C2E2940F00D81ECE7019830F82F
:104C9000156005F10105002E5CD0202E04D02E2ECB
:104CA00005D1AC4200F0E88047F00307EEE7C845C5
:104CB00002D2AC4217D1D7E0B9F10B0F03D147F0C4
:104CC0000307504649E0AC4203D047F00307A54232
:104CD00042D84FEA8A0A5FFA8AFA25464FF00B0952
:104CE0004FF00808D2E77F2E11D930464FF000016F
:104CF000059EB047002800F0C48049F26802C0F267
:104D00004002131813F8806C47F0020726B104988C
:104D10003146029A904720B147F003074FF05F06F3
:104D200011E0A6F1410081B2192902D84AF0020A25
:104D300009E0A6F161039AB2192A04D84AF0010ADF
:104D4000A6F12006B6B20098816901F8086008F162
:104D500001089BE7504600E05046009B99690A789D
:104D6000E52A04BF05220A70B9F1080F04BF8000CC
:104D70005FFA80FA0AF00C000C2803D00AF0030353
:104D8000032B01D147F0020707F00201CAB252B962
:104D90000AF0030ABAF1010F08BF47F01007042810
:104DA00008BF47F0080700988369DF7244F2396151
:104DB000C0F240018847009A9369DB7A024648B105
:104DC000042A61D103F00403D9B2002914BF0246BA
:104DD000052259E003F00400C1B2002954D1009A21
:104DE0005369D87A00F01001CAB262B15C7D1F7DB0
:104DF00047EA0426D87E9B7E43EA002141EA064426
:104E0000009A946097E64FF005023DE04FF00004F1
:104E10004FF001010BE04FF000044FF0010106E0FC
:104E2000049E04E0049E02E0049E00E0049E06EB63
:104E3000010B4FF00007CBE64FF000044FF00101EB
:104E400000E0049E06EB010B4FF00407C0E606F1FC
:104E5000FF36019931F816202E2A3FF404AF14F0E2
:104E6000010F7FF4FCAE13E0B9F10B0F7FF431AF0B
:104E700025E74FF0060207E0B9F10B0F7FF429AFE9
:104E80001DE747F0020747E7104607B0BDE8F08F7F
:104E900004F1FF34A8F1020838F8023C2E2B7FF40D
:104EA000DEAEE0E600F1FF34A6F1020838F8022C8D
:104EB0002E2A7FF4D4AED6E62E287FF4A8AE013C8D
:104EC000D7D000293FF494AE32F8021D202902D039
:104ED0002E297FF49CAE013C7FF48AAEC9E72E29CF
:104EE0007FF495AE441E7FF483AEC2E77F2805D8D9
:104EF00003983146029A90470028BAD108F1020778
:104F0000A8F8026015F8016F304604F101011F2E68
:104F100097D92F2E88D05C2E88D009F101043CE669
:104F20002DE9F04F89B083468469C669019605A8CA
:104F300021464FF00C0243F2C173C0F24003984780
:104F40009DF81F0010F0010F00F09F804FF000014E
:104F5000E172CBF81C10204605A94FF00B0243F27A
:104F6000C175C0F24005A8474FF001052A464FF031
:104F700007094FF07E084FF0000A44F23967C0F28B
:104F8000400743F2C176C0F24006009619E0204681
:104F900005A94FF00B02009B9847052D10D90198E9
:104FA000A0F102002A464FEAC23646EA520230F821
:104FB000021F11FA82F39AB24688002EF3D100E064
:104FC0002A464B4602F00F0000F13001392988BF14
:104FD00000F1370103AE995503F1FF33C2F30F120D
:104FE000002AEFD19E4608A8C11801F8148CB3B16D
:104FF0002678202E15D0214652466FEA0A00C618A0
:1050000016F0010F40F09B8102F10100024670454D
:1050100008D011F8016F202E40F09A8102E052462C
:1050200000E052464FF02000C2F1070101F00106F6
:10503000072B00F258814DE1072B06D808AEF11876
:1050400011F8141C03F1010300E00146A15402F120
:105050000102072B00F26B8160E15846B847064613
:1050600038B905F10105ADB2642D90D14FF00706B6
:105070002CE1642D00F00A81042840F027819DF87E
:105080001F00E072019ACBF81C209DF81F1001F060
:105090000203DEB2F6B10198028852B14FF000036C
:1050A000014603F101039BB231F81360002EF8D1E1
:1050B00001E04FF0000303F119034EF64F40C4F630
:1050C000C46080FB03E24FEAE373C3EBA2091FFA5B
:1050D00089F901E04FF0010958464FF0000144F210
:1050E0006106C0F24006B0470646002840F0EE8058
:1050F0004FF0000A544643F62D65C0F240054FF0CC
:10510000010844F2D137C0F24007DBF80000DBF8B9
:105110001010A8470646002840F0D880DBF814108D
:105120000878E52800D040B90CB9BBF806A004F116
:105130000104A4B24C4502D1ABE04FF00004584644
:105140004146B84706460028DFD0BFE058465146E2
:1051500044F26102C0F2400290470646002840F047
:10516000B580DBF8180043F68504C0F24004A04780
:10517000054609F1FF37BFB249F23014C0F24004CE
:1051800044F2D133C0F240030093DBF80000DBF8B7
:10519000101043F62D66C0F24006B04706460028C0
:1051A00040F09480DBF81C80DBF814105FFA87FA7B
:1051B0004D734FF00F00C8724FF000030B738B76E6
:1051C000CB760AF1FF3202EB420602EB86064FF085
:1051D00001024FF6FF7C4FF0FF0902E0634602F147
:1051E000010263455AD038F8163006F10106A018BE
:1051F00010F8010C0B5408184FEA132E80F801E048
:10520000002B54D00C2AEAD94FF6FF72934202D0F9
:1052100038F816601EB947F0400A5FFA8AFA81F83A
:1052200000A0DBF800104FF001030B7158464FF05F
:105230000001009A90470646002847D107F1FF3742
:10524000BFB2002FA1D135E0DBF8144020464FF06B
:1052500000014FF0200243F61503C0F240039847C7
:105260002046DBF818104FF00B0243F2C173C0F276
:1052700040039847DBF81800C17A01F01802227346
:10528000DBF800304FF0010018711FE04FF0070607
:105290001CE0B9F1010F3FF659AF0BE0A01810F870
:1052A000010C01F80090081880F80190AAE70C2A78
:1052B00094D9B0E7DBF80000DBF8101043F62D6658
:1052C000C0F24006B04706460028BDD0304609B0BF
:1052D000BDE8F08F0DF1200C0CEB030111F8141C4C
:1052E00003F1010300E00146A15402F10102072A83
:1052F0003FF6B3AE002E3FF49FAE072B06D808A9A9
:10530000CE1816F8146C03F1010300E00646A6540B
:1053100002F10102072A7FF68FAE9EE60DF1200E04
:105320000EEB030111F8146C03F1010300E00646D3
:10533000A65402F10102072A7FF67EAE8DE602F145
:105340000102607801F1010120287FF45DAE69E679
:1053500000F1010211F8010F20287FF455AE61E63B
:10536000072816D840F67053C2F2000353F82030D5
:1053700013B14FF000021A7011B14FF000030B701F
:1053800040F67052C2F2000242F820104FF00000C6
:1053900070474FF00B0070472DE9F041ADF50E7DE1
:1053A0000546019116464FF00003036002F01F0707
:1053B00001A885A902F01E0243F61524C0F240049C
:1053C000A04782A98B9102AA8C920346002840F044
:1053D000AC8085A8019944F6D523C0F240039847D4
:1053E0008A9C0346002840F0A980002C40F09F8052
:1053F000A2E073B1042B40F0B58085A844F6217477
:10540000C0F24004A04747F008078A9C034658B101
:10541000A8E0E37A13F0110F40F0958006F0040045
:10542000C6B2002E40F0928007F00801CAB2002AEE
:1054300000F0958043F26176C0F24006B047A07359
:10544000C0F30723E3734FEA104121744FEA106061
:1054500060744FF00006E67226776677A677E677E7
:10546000637D227D42EA0321E07EA37E43EA00229F
:10547000A676E6762675667585984FF00106067164
:1054800052EA01466BD0D0F82C80314644F24932C2
:10549000C0F2400290470346002863D1859806F188
:1054A000FF36C660414643F62D63C0F2400398477D
:1054B00003460EE0E07A00F01001CAB2002A48D19B
:1054C00006F00206F6B2002E49D010F0010F43D1CB
:1054D00045E0002B46D107F00801C8B208B147F0FB
:1054E0002007859AD66AEE612C62AF71607D217DBE
:1054F00041EA0020E67EA17E41EA062141EA004021
:105500002861E07FA17F4FEA014141EA0061207FED
:105510000143607F41EA0021E9604FF00000A8608C
:10552000A8612A60D288AA801CE08A9C06E016F056
:105530001C0F7FF46EAFBDE74FF0060316F01C0F93
:105540007FF457AFC5E74FF007030BE04FF00803B8
:1055500008E04FF0040305E04FF0070302E04FF0CE
:105560000003B8E718460DF50E7DBDE8F08100BFD9
:105570002DE9F04F85B00446884615461E464FF08B
:10558000000333600068A18843F62912C0F240028C
:1055900090470746002840F00D81A07910F0800F59
:1055A00040F0038100F00201CBB2002B00F000813B
:1055B000E268D54280F0EF80002D00F0EC8043F6E9
:1055C0002D60C0F24000009043F2C171C0F2400172
:1055D000019143F66503C0F2400302930397A76865
:1055E0004FEAC7524FEAD250002840F09D80206811
:1055F00090F802A00AF1FF3101EA572313F0FF0AE5
:105600002AD15FB922699AB94FF0000144F26923A7
:10561000C0F2400398470246206106E0616944F207
:105620006927C0F24007B8470246002A00F0B2805E
:10563000012A06D1A77967F07F00A0714FF0020719
:10564000B8E0B2F1FF3F06D1A37963F07F01A17109
:105650004FF00107AEE062612068C16AA769B942F4
:105660000BD14FF00001009A904730B1A07960F063
:105670007F02A2714FF001079CE0276838466169FC
:10568000029B9847834630B9A17961F07F07A771E3
:105690004FF002078EE000EB0A0B5FEA55292DD090
:1056A000B87809EB0A02824288BFCAEB0009787811
:1056B00041465A465FFA89F343F2FD57C0F240076C
:1056C000B84730B1A27962F07F03A3714FF00107B0
:1056D00070E02068C36ACBEB030189450BD900F168
:1056E000300008EB41214FF40072019FB847206859
:1056F0004FF0000202714FEA49293CE0A068E168DE
:1057000088420FD338464FF00001009A904730B1DD
:10571000A77967F07F01A1714FF001074AE0276880
:10572000C7F82CB0C4F818B0A3684FEAC3594FEAC1
:10573000D950C0F500794D4538BFA9462068A16908
:10574000009A904730B1A07960F07F03A3714FF0C9
:1057500001072FE0A1684FEAC1574FEAD75000F187
:1057600030002368181841464A46019FB84721680F
:105770004FF001020A71C844A36803EB0901A1605C
:10578000376807EB09003060B5EB09057FF427AFF8
:10579000039F00E0039FA368E268934288BFE36031
:1057A000A17941F02000A07104E04FF0020701E070
:1057B0004FF00707384605B0BDE8F08F38B504460E
:1057C0000068A18843F62913C0F2400398470346B6
:1057D000002848D1A27902F02000C1B2002942D0AD
:1057E0002068E16943F62D63C0F240039847034601
:1057F000002838D1256AEA7A42F02000E872E16890
:105800002977A3894FEA13226A77E089A877E17B99
:10581000E9772369AB76228A4FEA1220E876618A1B
:105820002975638A4FEA13226A7543F26170C0F2E8
:1058300040008047A875C0F30721E9754FEA10437F
:105840002B764FEA10626A76A07920F02001A171D0
:1058500023684FF001021A71206844F24951C0F2E6
:10586000400188470346184638BD00BF10B50446BE
:1058700045F2BD73C0F240039847014610B94FF09E
:1058800000022260084610BD10B582B002AB03F8DA
:10589000080D084669464FF0010201AB45F271540C
:1058A000C0F24004A0470198012814BF4FF0FF3018
:1058B000012002B010BD00BFF8B505460E460078C5
:1058C00088B14FF0000445F68907C0F24007314621
:1058D000B847B0F1FF3F09D004F1010415F8010FFA
:1058E0000028F4D104E04FF0000401E04FF0FF3451
:1058F0002046F8BD7F282DD911B9C7280BD121E04A
:10590000FF2825D8A0F1800049F24012C0F24002E1
:1059100032F8100070474FF0010349F24012C0F214
:10592000400232F8021F814215D10DE032F8021F09
:10593000814209D003F101039BB232F8021F814278
:105940000DD101E04FF0000303F18000C0B27047B9
:105950004FF00000704703F101039BB2E6E703F14B
:1059600001039BB2802BE1D1EEE700BF61280ED08E
:1059700049F22041C0F240014FF0000202F1010261
:1059800031F8023F5BB18342F8D113B970474FF051
:10599000000249F24020C0F2400030F81200704787
:1059A000F0B583B004460D464FF0000301934FF469
:1059B000C060C4F20E0084420DD14FF4C066C4F240
:1059C0000E0642F6C177C0F2400730462946B84776
:1059D0000028FAD129E04FF40061C4F20E018C4294
:1059E0000DD14FF40064C4F20E0442F6C176C0F249
:1059F000400620462946B0470028FAD12AE04FF455
:105A00008042C4F2020294420FD14FF48044C4F2A7
:105A1000020442F6F976C0F24006204601A9B047DA
:105A20000028FAD1019B2B7014E04FF40040C4F21F
:105A3000020084420ED14FF40044C4F2020442F644
:105A4000F976C0F24006204601A9B0470028FAD1F5
:105A50000199297003B0F0BD70B50C464FF4C063D6
:105A6000C4F20E0398420FD14FF4C065C4F20E0584
:105A700042F6A976C0F2400628462146B0470028E3
:105A8000FAD14FF0010070BD4FF40061C4F20E0175
:105A900088420FD14FF40065C4F20E0542F6A97694
:105AA000C0F2400628462146B0470028FAD14FF000
:105AB000010070BD4FF48042C4F2020290420FD147
:105AC0004FF48045C4F2020542F6D976C0F2400692
:105AD00028462146B0470028FAD14FF0010070BD9A
